{
  "_format": "hh-sol-artifact-1",
  "contractName": "PhantomRiskV1",
  "sourceName": "contracts/PhantomRiskV1.sol",
  "abi": [
    {
      "inputs": [
        {
          "internalType": "contract Pleb",
          "name": "_pleb",
          "type": "address"
        },
        {
          "internalType": "address payable",
          "name": "_ticketRevenueRecipient",
          "type": "address"
        }
      ],
      "stateMutability": "nonpayable",
      "type": "constructor"
    },
    {
      "anonymous": false,
      "inputs": [
        {
          "indexed": false,
          "internalType": "address",
          "name": "player",
          "type": "address"
        },
        {
          "indexed": false,
          "internalType": "enum PhantomRiskV1.Faction",
          "name": "faction",
          "type": "uint8"
        },
        {
          "indexed": false,
          "internalType": "uint8",
          "name": "region",
          "type": "uint8"
        },
        {
          "indexed": false,
          "internalType": "uint256",
          "name": "soldier",
          "type": "uint256"
        }
      ],
      "name": "Attacked",
      "type": "event"
    },
    {
      "anonymous": false,
      "inputs": [
        {
          "indexed": false,
          "internalType": "address",
          "name": "player",
          "type": "address"
        },
        {
          "indexed": false,
          "internalType": "uint256",
          "name": "pleb",
          "type": "uint256"
        }
      ],
      "name": "ClaimedPleb",
      "type": "event"
    },
    {
      "anonymous": false,
      "inputs": [
        {
          "indexed": false,
          "internalType": "address",
          "name": "player",
          "type": "address"
        },
        {
          "indexed": false,
          "internalType": "uint8",
          "name": "region",
          "type": "uint8"
        },
        {
          "indexed": false,
          "internalType": "uint256",
          "name": "soldier",
          "type": "uint256"
        }
      ],
      "name": "DeployedGarrison",
      "type": "event"
    },
    {
      "anonymous": false,
      "inputs": [
        {
          "indexed": false,
          "internalType": "address",
          "name": "player",
          "type": "address"
        },
        {
          "indexed": false,
          "internalType": "uint8",
          "name": "region",
          "type": "uint8"
        },
        {
          "indexed": false,
          "internalType": "uint256",
          "name": "worker",
          "type": "uint256"
        }
      ],
      "name": "DeployedWorker",
      "type": "event"
    },
    {
      "anonymous": false,
      "inputs": [],
      "name": "DeploymentDone",
      "type": "event"
    },
    {
      "anonymous": false,
      "inputs": [
        {
          "indexed": false,
          "internalType": "enum PhantomRiskV1.Faction",
          "name": "faction",
          "type": "uint8"
        }
      ],
      "name": "FactionLost",
      "type": "event"
    },
    {
      "anonymous": false,
      "inputs": [
        {
          "indexed": false,
          "internalType": "address",
          "name": "account",
          "type": "address"
        },
        {
          "indexed": false,
          "internalType": "uint256",
          "name": "amount",
          "type": "uint256"
        }
      ],
      "name": "FeesClaimed",
      "type": "event"
    },
    {
      "anonymous": false,
      "inputs": [
        {
          "indexed": false,
          "internalType": "address",
          "name": "player",
          "type": "address"
        },
        {
          "indexed": false,
          "internalType": "enum PhantomRiskV1.Faction",
          "name": "faction",
          "type": "uint8"
        }
      ],
      "name": "JoinedGame",
      "type": "event"
    },
    {
      "anonymous": false,
      "inputs": [
        {
          "indexed": true,
          "internalType": "address",
          "name": "previousOwner",
          "type": "address"
        },
        {
          "indexed": true,
          "internalType": "address",
          "name": "newOwner",
          "type": "address"
        }
      ],
      "name": "OwnershipTransferred",
      "type": "event"
    },
    {
      "anonymous": false,
      "inputs": [
        {
          "indexed": false,
          "internalType": "uint8",
          "name": "region",
          "type": "uint8"
        },
        {
          "indexed": false,
          "internalType": "uint8",
          "name": "tier",
          "type": "uint8"
        }
      ],
      "name": "RegionTierIncreased",
      "type": "event"
    },
    {
      "anonymous": false,
      "inputs": [
        {
          "indexed": false,
          "internalType": "uint8",
          "name": "region",
          "type": "uint8"
        },
        {
          "indexed": false,
          "internalType": "enum PhantomRiskV1.Faction",
          "name": "defender",
          "type": "uint8"
        },
        {
          "indexed": false,
          "internalType": "uint256",
          "name": "defendingSoldier",
          "type": "uint256"
        },
        {
          "indexed": false,
          "internalType": "enum PhantomRiskV1.Faction",
          "name": "attacker",
          "type": "uint8"
        },
        {
          "indexed": false,
          "internalType": "uint256",
          "name": "attackingSoldier",
          "type": "uint256"
        },
        {
          "indexed": false,
          "internalType": "bool",
          "name": "defenderWon",
          "type": "bool"
        }
      ],
      "name": "ResolvedSiege",
      "type": "event"
    },
    {
      "anonymous": false,
      "inputs": [
        {
          "components": [
            {
              "internalType": "uint256",
              "name": "ticketPrice",
              "type": "uint256"
            },
            {
              "internalType": "uint256",
              "name": "rallyTime",
              "type": "uint256"
            },
            {
              "internalType": "uint256",
              "name": "siegeTime",
              "type": "uint256"
            },
            {
              "internalType": "uint256",
              "name": "siegeCooldown",
              "type": "uint256"
            },
            {
              "internalType": "uint256",
              "name": "overwhelming",
              "type": "uint256"
            },
            {
              "internalType": "uint256",
              "name": "overwhelmingPenalty",
              "type": "uint256"
            },
            {
              "internalType": "uint256",
              "name": "plebForSoldier",
              "type": "uint256"
            },
            {
              "internalType": "uint256",
              "name": "plebForWorker",
              "type": "uint256"
            }
          ],
          "indexed": false,
          "internalType": "struct PhantomRiskV1.Settings",
          "name": "oldSettings",
          "type": "tuple"
        },
        {
          "components": [
            {
              "internalType": "uint256",
              "name": "ticketPrice",
              "type": "uint256"
            },
            {
              "internalType": "uint256",
              "name": "rallyTime",
              "type": "uint256"
            },
            {
              "internalType": "uint256",
              "name": "siegeTime",
              "type": "uint256"
            },
            {
              "internalType": "uint256",
              "name": "siegeCooldown",
              "type": "uint256"
            },
            {
              "internalType": "uint256",
              "name": "overwhelming",
              "type": "uint256"
            },
            {
              "internalType": "uint256",
              "name": "overwhelmingPenalty",
              "type": "uint256"
            },
            {
              "internalType": "uint256",
              "name": "plebForSoldier",
              "type": "uint256"
            },
            {
              "internalType": "uint256",
              "name": "plebForWorker",
              "type": "uint256"
            }
          ],
          "indexed": false,
          "internalType": "struct PhantomRiskV1.Settings",
          "name": "newSettings",
          "type": "tuple"
        }
      ],
      "name": "SettingsChanged",
      "type": "event"
    },
    {
      "inputs": [
        {
          "internalType": "uint8",
          "name": "regionTo",
          "type": "uint8"
        },
        {
          "internalType": "uint8",
          "name": "regionFrom",
          "type": "uint8"
        },
        {
          "internalType": "uint256",
          "name": "soldierAmount",
          "type": "uint256"
        },
        {
          "internalType": "bool",
          "name": "resolvesSiege",
          "type": "bool"
        }
      ],
      "name": "attack",
      "outputs": [],
      "stateMutability": "nonpayable",
      "type": "function",
      "gas": "0x01ba8140"
    },
    {
      "inputs": [],
      "name": "claimFees",
      "outputs": [],
      "stateMutability": "nonpayable",
      "type": "function",
      "gas": "0x01ba8140"
    },
    {
      "inputs": [
        {
          "internalType": "uint8",
          "name": "_region",
          "type": "uint8"
        },
        {
          "internalType": "uint256",
          "name": "_frontendFee",
          "type": "uint256"
        },
        {
          "internalType": "address",
          "name": "_frontendProvider",
          "type": "address"
        }
      ],
      "name": "claimPleb",
      "outputs": [],
      "stateMutability": "nonpayable",
      "type": "function",
      "gas": "0x01ba8140"
    },
    {
      "inputs": [],
      "name": "claimTicketRevenue",
      "outputs": [],
      "stateMutability": "nonpayable",
      "type": "function",
      "gas": "0x01ba8140"
    },
    {
      "inputs": [
        {
          "internalType": "address",
          "name": "",
          "type": "address"
        }
      ],
      "name": "claimableFees",
      "outputs": [
        {
          "internalType": "uint256",
          "name": "",
          "type": "uint256"
        }
      ],
      "stateMutability": "view",
      "type": "function",
      "gas": "0x01ba8140"
    },
    {
      "inputs": [
        {
          "internalType": "uint8[]",
          "name": "_regionId",
          "type": "uint8[]"
        },
        {
          "internalType": "uint8[]",
          "name": "_column",
          "type": "uint8[]"
        },
        {
          "internalType": "uint8[]",
          "name": "_row",
          "type": "uint8[]"
        },
        {
          "internalType": "uint8[][]",
          "name": "_neighbors",
          "type": "uint8[][]"
        },
        {
          "internalType": "uint8[]",
          "name": "_tier",
          "type": "uint8[]"
        },
        {
          "internalType": "uint256[]",
          "name": "_garrison",
          "type": "uint256[]"
        },
        {
          "internalType": "enum PhantomRiskV1.Faction[]",
          "name": "_controlledBy",
          "type": "uint8[]"
        },
        {
          "internalType": "uint256[]",
          "name": "_cantGetAttackedTill",
          "type": "uint256[]"
        }
      ],
      "name": "createRegions",
      "outputs": [],
      "stateMutability": "nonpayable",
      "type": "function",
      "gas": "0x01ba8140"
    },
    {
      "inputs": [
        {
          "internalType": "uint8",
          "name": "regionTo",
          "type": "uint8"
        },
        {
          "internalType": "uint8",
          "name": "neighborRegion",
          "type": "uint8"
        },
        {
          "internalType": "uint256",
          "name": "soldierAmount",
          "type": "uint256"
        },
        {
          "internalType": "bool",
          "name": "resolvesSiege",
          "type": "bool"
        }
      ],
      "name": "deployGarrison",
      "outputs": [],
      "stateMutability": "nonpayable",
      "type": "function",
      "gas": "0x01ba8140"
    },
    {
      "inputs": [
        {
          "internalType": "uint8",
          "name": "regionTo",
          "type": "uint8"
        },
        {
          "internalType": "uint256",
          "name": "workerAmount",
          "type": "uint256"
        }
      ],
      "name": "deployWorker",
      "outputs": [],
      "stateMutability": "nonpayable",
      "type": "function",
      "gas": "0x01ba8140"
    },
    {
      "inputs": [],
      "name": "deploymentDone",
      "outputs": [
        {
          "internalType": "bool",
          "name": "",
          "type": "bool"
        }
      ],
      "stateMutability": "view",
      "type": "function",
      "gas": "0x01ba8140"
    },
    {
      "inputs": [
        {
          "internalType": "uint256",
          "name": "",
          "type": "uint256"
        }
      ],
      "name": "factionDead",
      "outputs": [
        {
          "internalType": "bool",
          "name": "",
          "type": "bool"
        }
      ],
      "stateMutability": "view",
      "type": "function",
      "gas": "0x01ba8140"
    },
    {
      "inputs": [
        {
          "internalType": "uint8",
          "name": "_region",
          "type": "uint8"
        },
        {
          "internalType": "address",
          "name": "_player",
          "type": "address"
        }
      ],
      "name": "getClaimablePleb",
      "outputs": [
        {
          "internalType": "uint256",
          "name": "",
          "type": "uint256"
        }
      ],
      "stateMutability": "view",
      "type": "function",
      "gas": "0x01ba8140"
    },
    {
      "inputs": [
        {
          "internalType": "uint8",
          "name": "_region",
          "type": "uint8"
        },
        {
          "internalType": "address",
          "name": "_player",
          "type": "address"
        }
      ],
      "name": "getProductionByLord",
      "outputs": [
        {
          "internalType": "uint256",
          "name": "",
          "type": "uint256"
        },
        {
          "internalType": "uint256",
          "name": "",
          "type": "uint256"
        },
        {
          "internalType": "uint256",
          "name": "",
          "type": "uint256"
        }
      ],
      "stateMutability": "view",
      "type": "function",
      "gas": "0x01ba8140"
    },
    {
      "inputs": [
        {
          "internalType": "uint8",
          "name": "_region",
          "type": "uint8"
        }
      ],
      "name": "getRegion",
      "outputs": [
        {
          "internalType": "uint8",
          "name": "id_",
          "type": "uint8"
        },
        {
          "internalType": "uint8",
          "name": "column_",
          "type": "uint8"
        },
        {
          "internalType": "uint8",
          "name": "row_",
          "type": "uint8"
        },
        {
          "internalType": "uint8[]",
          "name": "neighbors_",
          "type": "uint8[]"
        },
        {
          "internalType": "uint8",
          "name": "tier_",
          "type": "uint8"
        },
        {
          "internalType": "uint256",
          "name": "garrison_",
          "type": "uint256"
        },
        {
          "internalType": "uint256",
          "name": "totalWorker_",
          "type": "uint256"
        },
        {
          "internalType": "enum PhantomRiskV1.Faction",
          "name": "controlledBy_",
          "type": "uint8"
        },
        {
          "internalType": "bool",
          "name": "besieged_",
          "type": "bool"
        },
        {
          "internalType": "uint256",
          "name": "cantGetAttackedTill_",
          "type": "uint256"
        }
      ],
      "stateMutability": "view",
      "type": "function",
      "gas": "0x01ba8140"
    },
    {
      "inputs": [],
      "name": "getRegionIds",
      "outputs": [
        {
          "internalType": "uint8[]",
          "name": "",
          "type": "uint8[]"
        }
      ],
      "stateMutability": "view",
      "type": "function",
      "gas": "0x01ba8140"
    },
    {
      "inputs": [],
      "name": "getRegionTiers",
      "outputs": [
        {
          "components": [
            {
              "internalType": "uint256",
              "name": "workerLimit",
              "type": "uint256"
            },
            {
              "internalType": "uint256",
              "name": "requiredGarrison",
              "type": "uint256"
            },
            {
              "internalType": "uint256",
              "name": "plebPerSec",
              "type": "uint256"
            }
          ],
          "internalType": "struct PhantomRiskV1.RegionTier[5]",
          "name": "",
          "type": "tuple[5]"
        }
      ],
      "stateMutability": "view",
      "type": "function",
      "gas": "0x01ba8140"
    },
    {
      "inputs": [
        {
          "internalType": "uint8",
          "name": "_region",
          "type": "uint8"
        }
      ],
      "name": "getSiege",
      "outputs": [
        {
          "internalType": "enum PhantomRiskV1.Faction",
          "name": "attacker_",
          "type": "uint8"
        },
        {
          "internalType": "uint256",
          "name": "attackedAt_",
          "type": "uint256"
        },
        {
          "internalType": "uint256",
          "name": "soldier_",
          "type": "uint256"
        }
      ],
      "stateMutability": "view",
      "type": "function",
      "gas": "0x01ba8140"
    },
    {
      "inputs": [
        {
          "internalType": "uint8",
          "name": "_regionTo",
          "type": "uint8"
        },
        {
          "internalType": "uint8",
          "name": "_regionFrom",
          "type": "uint8"
        }
      ],
      "name": "isNeighbor",
      "outputs": [
        {
          "internalType": "bool",
          "name": "",
          "type": "bool"
        }
      ],
      "stateMutability": "view",
      "type": "function",
      "gas": "0x01ba8140"
    },
    {
      "inputs": [],
      "name": "joinGame",
      "outputs": [],
      "stateMutability": "payable",
      "type": "function",
      "gas": "0x01ba8140"
    },
    {
      "inputs": [],
      "name": "layout",
      "outputs": [
        {
          "internalType": "uint8",
          "name": "rows",
          "type": "uint8"
        },
        {
          "internalType": "uint8",
          "name": "columns",
          "type": "uint8"
        }
      ],
      "stateMutability": "view",
      "type": "function",
      "gas": "0x01ba8140"
    },
    {
      "inputs": [],
      "name": "owner",
      "outputs": [
        {
          "internalType": "address",
          "name": "",
          "type": "address"
        }
      ],
      "stateMutability": "view",
      "type": "function",
      "gas": "0x01ba8140"
    },
    {
      "inputs": [
        {
          "internalType": "address",
          "name": "",
          "type": "address"
        }
      ],
      "name": "player",
      "outputs": [
        {
          "internalType": "enum PhantomRiskV1.Faction",
          "name": "faction",
          "type": "uint8"
        },
        {
          "internalType": "bool",
          "name": "joined",
          "type": "bool"
        }
      ],
      "stateMutability": "view",
      "type": "function",
      "gas": "0x01ba8140"
    },
    {
      "inputs": [],
      "name": "pleb",
      "outputs": [
        {
          "internalType": "contract Pleb",
          "name": "",
          "type": "address"
        }
      ],
      "stateMutability": "view",
      "type": "function",
      "gas": "0x01ba8140"
    },
    {
      "inputs": [
        {
          "internalType": "uint8",
          "name": "_regionTo",
          "type": "uint8"
        },
        {
          "internalType": "uint8",
          "name": "_regionFrom",
          "type": "uint8"
        }
      ],
      "name": "regionAllowsAttack",
      "outputs": [
        {
          "internalType": "bool",
          "name": "",
          "type": "bool"
        }
      ],
      "stateMutability": "view",
      "type": "function",
      "gas": "0x01ba8140"
    },
    {
      "inputs": [
        {
          "internalType": "uint256",
          "name": "",
          "type": "uint256"
        }
      ],
      "name": "regionIds",
      "outputs": [
        {
          "internalType": "uint8",
          "name": "",
          "type": "uint8"
        }
      ],
      "stateMutability": "view",
      "type": "function",
      "gas": "0x01ba8140"
    },
    {
      "inputs": [
        {
          "internalType": "uint256",
          "name": "",
          "type": "uint256"
        }
      ],
      "name": "regionTiers",
      "outputs": [
        {
          "internalType": "uint256",
          "name": "workerLimit",
          "type": "uint256"
        },
        {
          "internalType": "uint256",
          "name": "requiredGarrison",
          "type": "uint256"
        },
        {
          "internalType": "uint256",
          "name": "plebPerSec",
          "type": "uint256"
        }
      ],
      "stateMutability": "view",
      "type": "function",
      "gas": "0x01ba8140"
    },
    {
      "inputs": [
        {
          "internalType": "uint8",
          "name": "",
          "type": "uint8"
        }
      ],
      "name": "regions",
      "outputs": [
        {
          "internalType": "uint8",
          "name": "id",
          "type": "uint8"
        },
        {
          "internalType": "uint8",
          "name": "column",
          "type": "uint8"
        },
        {
          "internalType": "uint8",
          "name": "row",
          "type": "uint8"
        },
        {
          "internalType": "uint8",
          "name": "tier",
          "type": "uint8"
        },
        {
          "internalType": "uint256",
          "name": "garrison",
          "type": "uint256"
        },
        {
          "internalType": "uint256",
          "name": "totalWorker",
          "type": "uint256"
        },
        {
          "internalType": "enum PhantomRiskV1.Faction",
          "name": "controlledBy",
          "type": "uint8"
        },
        {
          "internalType": "bool",
          "name": "besieged",
          "type": "bool"
        },
        {
          "internalType": "uint256",
          "name": "cantGetAttackedTill",
          "type": "uint256"
        },
        {
          "components": [
            {
              "internalType": "enum PhantomRiskV1.Faction",
              "name": "attacker",
              "type": "uint8"
            },
            {
              "internalType": "uint256",
              "name": "attackedAt",
              "type": "uint256"
            },
            {
              "internalType": "uint256",
              "name": "soldier",
              "type": "uint256"
            }
          ],
          "internalType": "struct PhantomRiskV1.Siege",
          "name": "siege",
          "type": "tuple"
        }
      ],
      "stateMutability": "view",
      "type": "function",
      "gas": "0x01ba8140"
    },
    {
      "inputs": [
        {
          "internalType": "uint256",
          "name": "",
          "type": "uint256"
        }
      ],
      "name": "regionsPerFaction",
      "outputs": [
        {
          "internalType": "uint256",
          "name": "",
          "type": "uint256"
        }
      ],
      "stateMutability": "view",
      "type": "function",
      "gas": "0x01ba8140"
    },
    {
      "inputs": [],
      "name": "renounceOwnership",
      "outputs": [],
      "stateMutability": "nonpayable",
      "type": "function",
      "gas": "0x01ba8140"
    },
    {
      "inputs": [
        {
          "internalType": "uint8",
          "name": "_region",
          "type": "uint8"
        }
      ],
      "name": "resolveSiege",
      "outputs": [],
      "stateMutability": "nonpayable",
      "type": "function",
      "gas": "0x01ba8140"
    },
    {
      "inputs": [
        {
          "internalType": "uint8",
          "name": "_rows",
          "type": "uint8"
        },
        {
          "internalType": "uint8",
          "name": "_columns",
          "type": "uint8"
        }
      ],
      "name": "setDeploymentDone",
      "outputs": [],
      "stateMutability": "nonpayable",
      "type": "function",
      "gas": "0x01ba8140"
    },
    {
      "inputs": [
        {
          "components": [
            {
              "internalType": "uint256",
              "name": "workerLimit",
              "type": "uint256"
            },
            {
              "internalType": "uint256",
              "name": "requiredGarrison",
              "type": "uint256"
            },
            {
              "internalType": "uint256",
              "name": "plebPerSec",
              "type": "uint256"
            }
          ],
          "internalType": "struct PhantomRiskV1.RegionTier[5]",
          "name": "tiers",
          "type": "tuple[5]"
        }
      ],
      "name": "setRegionTiers",
      "outputs": [],
      "stateMutability": "nonpayable",
      "type": "function",
      "gas": "0x01ba8140"
    },
    {
      "inputs": [
        {
          "internalType": "uint256",
          "name": "_ticketPrice",
          "type": "uint256"
        },
        {
          "internalType": "uint256",
          "name": "_rallyTime",
          "type": "uint256"
        },
        {
          "internalType": "uint256",
          "name": "_siegeTime",
          "type": "uint256"
        },
        {
          "internalType": "uint256",
          "name": "_siegeCooldown",
          "type": "uint256"
        },
        {
          "internalType": "uint256",
          "name": "_overwhelming",
          "type": "uint256"
        },
        {
          "internalType": "uint256",
          "name": "_overwhelmingPenalty",
          "type": "uint256"
        },
        {
          "internalType": "uint256",
          "name": "_plebForSoldier",
          "type": "uint256"
        },
        {
          "internalType": "uint256",
          "name": "_plebForWorker",
          "type": "uint256"
        }
      ],
      "name": "setSettings",
      "outputs": [],
      "stateMutability": "nonpayable",
      "type": "function",
      "gas": "0x01ba8140"
    },
    {
      "inputs": [],
      "name": "settings",
      "outputs": [
        {
          "internalType": "uint256",
          "name": "ticketPrice",
          "type": "uint256"
        },
        {
          "internalType": "uint256",
          "name": "rallyTime",
          "type": "uint256"
        },
        {
          "internalType": "uint256",
          "name": "siegeTime",
          "type": "uint256"
        },
        {
          "internalType": "uint256",
          "name": "siegeCooldown",
          "type": "uint256"
        },
        {
          "internalType": "uint256",
          "name": "overwhelming",
          "type": "uint256"
        },
        {
          "internalType": "uint256",
          "name": "overwhelmingPenalty",
          "type": "uint256"
        },
        {
          "internalType": "uint256",
          "name": "plebForSoldier",
          "type": "uint256"
        },
        {
          "internalType": "uint256",
          "name": "plebForWorker",
          "type": "uint256"
        }
      ],
      "stateMutability": "view",
      "type": "function",
      "gas": "0x01ba8140"
    },
    {
      "inputs": [
        {
          "internalType": "uint8",
          "name": "_region",
          "type": "uint8"
        }
      ],
      "name": "siegeOutcome",
      "outputs": [
        {
          "internalType": "bool",
          "name": "",
          "type": "bool"
        },
        {
          "internalType": "bool",
          "name": "",
          "type": "bool"
        },
        {
          "internalType": "uint256",
          "name": "",
          "type": "uint256"
        }
      ],
      "stateMutability": "view",
      "type": "function",
      "gas": "0x01ba8140"
    },
    {
      "inputs": [],
      "name": "ticketRevenueRecipient",
      "outputs": [
        {
          "internalType": "address payable",
          "name": "",
          "type": "address"
        }
      ],
      "stateMutability": "view",
      "type": "function",
      "gas": "0x01ba8140"
    },
    {
      "inputs": [
        {
          "internalType": "address",
          "name": "newOwner",
          "type": "address"
        }
      ],
      "name": "transferOwnership",
      "outputs": [],
      "stateMutability": "nonpayable",
      "type": "function",
      "gas": "0x01ba8140"
    }
  ],
  "bytecode": "0x60806040523480156200001157600080fd5b50604051620047c1380380620047c1833981016040819052620000349162000208565b6200003f3362000099565b600280546001600160a01b038085166001600160a01b031992831617835560038054918516919092161781556200009191678ac7230489e80000916170809162015180916205460091806001620000e9565b50506200030d565b600080546001600160a01b038381166001600160a01b0319831681178455604051919092169283917f8be0079c531659141344cd1fd0a4f28419497f9722a3daafe3b4186f6b6457e09190a35050565b6000546001600160a01b03163314620001485760405162461bcd60e51b815260206004820181905260248201527f4f776e61626c653a2063616c6c6572206973206e6f7420746865206f776e6572604482015260640160405180910390fd5b60006040518061010001604052808a81526020018981526020018881526020018781526020018681526020018581526020018481526020018381525090507fc65c428c415dee4a517fa483a510c47b886abace0d66df52eb44c025001e8122601c82604051620001ba92919062000246565b60405180910390a18051601c55602080820151601d556040820151601e556060820151601f556080820151905560a081015160215560c081015160225560e001516023555050505050505050565b600080604083850312156200021b578182fd5b82516200022881620002f4565b60208401519092506200023b81620002f4565b809150509250929050565b8254815260018301546020820152600283015460408201526003830154606082015260048301546080820152600583015460a0820152600683015460c0820152600783015460e08201526102008101620002ed610100830184805182526020810151602083015260408101516040830152606081015160608301526080810151608083015260a081015160a083015260c081015160c083015260e081015160e08301525050565b9392505050565b6001600160a01b03811681146200030a57600080fd5b50565b6144a4806200031d6000396000f3fe60806040526004361061024e5760003560e01c806384b17f9c11610138578063d4f77b1c116100b0578063ea3f63c11161007f578063f478863311610064578063f4788633146107be578063f64cad0d146107de578063ff99dcac146107fe57600080fd5b8063ea3f63c114610763578063f2fde38b1461079e57600080fd5b8063d4f77b1c146106ad578063e06174e4146106b5578063e2d7ef0314610723578063e8e92b381461074357600080fd5b8063ad72194811610107578063bf14e7c7116100ec578063bf14e7c714610658578063cb687e8f14610678578063d294f0931461069857600080fd5b8063ad721948146105e2578063bb8dbf801461060257600080fd5b806384b17f9c1461056d5780638da5cb5b1461058d578063a33e751e146105ab578063a87cfcc9146105cd57600080fd5b8063507ef001116101cb5780636d2cd9681161019a5780637be721c91161017f5780637be721c9146105005780637e0b249214610520578063815b24c71461054d57600080fd5b80636d2cd968146104cb578063715018a6146104eb57600080fd5b8063507ef0011461043f5780635223ae5a146104695780635a5212ce1461048b57806367c93d95146104ab57600080fd5b8063320e37571161022257806346eae8dd1161020757806346eae8dd1461038c5780634919522a146103c25780634c54e1b5146103f857600080fd5b8063320e3757146103385780633ca378c21461035a57600080fd5b806216763414610253578063023b27f51461029557806323081c16146102cd5780632f63ebc9146102fb575b600080fd5b34801561025f57600080fd5b506009546102769060ff8082169161010090041682565b6040805160ff9384168152929091166020830152015b60405180910390f35b3480156102a157600080fd5b506003546102b5906001600160a01b031681565b6040516001600160a01b03909116815260200161028c565b3480156102d957600080fd5b506102ed6102e8366004613e54565b61081e565b60405190815260200161028c565b34801561030757600080fd5b5061031b610316366004613e3a565b610905565b60408051931515845291151560208401529082015260600161028c565b34801561034457600080fd5b50610358610353366004613bea565b610a4e565b005b34801561036657600080fd5b5061037a610375366004613db6565b610b44565b60405160ff909116815260200161028c565b34801561039857600080fd5b506103ac6103a7366004613e3a565b610b78565b60405161028c9a99989796959493929190614212565b3480156103ce57600080fd5b506103e26103dd366004613e3a565b610c41565b60405161028c9a999897969594939291906141a4565b34801561040457600080fd5b50610431610413366004613bd0565b60016020526000908152604090205460ff8082169161010090041682565b60405161028c92919061407f565b34801561044b57600080fd5b506024546104599060ff1681565b604051901515815260200161028c565b34801561047557600080fd5b5061047e610d49565b60405161028c919061405e565b34801561049757600080fd5b506104596104a6366004613eea565b610dbf565b3480156104b757600080fd5b506103586104c6366004613f13565b610e75565b3480156104d757600080fd5b506103586104e6366004613de6565b6112ae565b3480156104f757600080fd5b506103586113c6565b34801561050c57600080fd5b5061035861051b366004613eaf565b61142c565b34801561052c57600080fd5b506102ed61053b366004613bd0565b601b6020526000908152604090205481565b34801561055957600080fd5b506102ed610568366004613db6565b611818565b34801561057957600080fd5b506002546102b5906001600160a01b031681565b34801561059957600080fd5b506000546001600160a01b03166102b5565b3480156105b757600080fd5b506105c061182f565b60405161028c9190614013565b3480156105d957600080fd5b50610358611899565b3480156105ee57600080fd5b506103586105fd366004613e3a565b61192f565b34801561060e57600080fd5b5061064961061d366004613e3a565b60ff9081166000908152600b602081905260409091206009810154600a82015491909201549190921692565b60405161028c9392919061409c565b34801561066457600080fd5b50610358610673366004613eea565b611938565b34801561068457600080fd5b50610459610693366004613eea565b611ab0565b3480156106a457600080fd5b50610358611b5b565b610358611c77565b3480156106c157600080fd5b50601c54601d54601e54601f546020546021546022546023546106e8979695949392919088565b604080519889526020890197909752958701949094526060860192909252608085015260a084015260c083015260e08201526101000161028c565b34801561072f57600080fd5b5061035861073e366004613e86565b611d9d565b34801561074f57600080fd5b5061035861075e366004613f13565b612344565b34801561076f57600080fd5b5061078361077e366004613db6565b612798565b6040805193845260208401929092529082015260600161028c565b3480156107aa57600080fd5b506103586107b9366004613bd0565b6127bf565b3480156107ca57600080fd5b506104596107d9366004613db6565b61289e565b3480156107ea57600080fd5b506103586107f9366004613c7f565b6128c8565b34801561080a57600080fd5b50610783610819366004613e54565b612cd7565b60ff82166000908152600b602090815260408083206001600160a01b0385168452600581019092528220546006820154158015906108a05750836001600160a01b031682600601828154811061088457634e487b7160e01b600052603260045260246000fd5b60009182526020909120600490910201546001600160a01b0316145b80156108e0575060008260060182815481106108cc57634e487b7160e01b600052603260045260246000fd5b906000526020600020906004020160010154115b156108f8576108ef8282612e3a565b925050506108ff565b6000925050505b92915050565b60ff81166000908152600b602081905260408220908101548291829161092c906064612f51565b6020546109499061093e9060646143d9565b600384015490612f51565b1061098057602154600b8201546001918291610974916109699190612f5d565b600385015490612f69565b93509350935050610a47565b6003810154610990906064612f51565b6020546109ad906109a29060646143d9565b600b84015490612f51565b106109e057600160006109746109d5601c600501548560030154612f5d90919063ffffffff16565b600b85015490612f69565b601e54600a82015442916109f49190612f75565b1015610a3a57600b810154600382015410610a2157600b8101546003820154600191829161097491612f69565b6003810154600b82015460019160009161097491612f69565b6000806000935093509350505b9193909250565b6000546001600160a01b03163314610aad5760405162461bcd60e51b815260206004820181905260248201527f4f776e61626c653a2063616c6c6572206973206e6f7420746865206f776e657260448201526064015b60405180910390fd5b60005b60058160ff161015610b4057818160ff1660058110610adf57634e487b7160e01b600052603260045260246000fd5b6020020151600c8260ff1660058110610b0857634e487b7160e01b600052603260045260246000fd5b600302016000820151816000015560208201518160010155604082015181600201559050508080610b3890614422565b915050610ab0565b5050565b600a8181548110610b5457600080fd5b9060005260206000209060209182820401919006915054906101000a900460ff1681565b600b60205260009081526040908190208054600282015460038084015460048501546007860154600887015488516060810190995260098801805460ff808a169b610100808c0483169c62010000909c0483169b9a83169a989997988784169891909704831696949193919284921690811115610c0557634e487b7160e01b600052602160045260246000fd5b6003811115610c2457634e487b7160e01b600052602160045260246000fd5b81526020016001820154815260200160028201548152505090508a565b60ff8082166000908152600b60209081526040808320805460018201805484518187028101870190955280855282881697610100840481169762010000909404169560609593948594859485948594859493929190830182828015610ce357602002820191906000526020600020906000905b825461010083900a900460ff16815260206001928301818104948501949093039092029101808411610cb45790505b505050505097508060020160009054906101000a900460ff16965080600301549550806004015494508060070160009054906101000a900460ff1693508060070160019054906101000a900460ff16925080600801549150509193959799509193959799565b6060600a805480602002602001604051908101604052809291908181526020018280548015610db557602002820191906000526020600020906000905b825461010083900a900460ff16815260206001928301818104948501949093039092029101808411610d865790505b5050505050905090565b6000610dcb8383611ab0565b8015610ddb5750610ddb82612f81565b8015610e4e57503360009081526001602052604090205460ff166003811115610e1457634e487b7160e01b600052602160045260246000fd5b60ff8085166000908152600b6020526040902060070154166003811115610e4b57634e487b7160e01b600052602160045260246000fd5b14155b8015610e6e575060ff83166000908152600b602052604090206008015442115b9392505050565b336000908152600160205260409020548390610100900460ff16610ed55760405162461bcd60e51b8152602060048201526017602482015276796f75206469646e74206a6f696e207468652067616d6560481b6044820152606401610aa4565b60ff8082166000908152600b60205260409020600701546101009004168015610f215750601d5460ff82166000908152600b60205260409020600a01544291610f1e9190612f75565b11155b15610f2f57610f2f81613014565b33600081815260016020526040902054859190610100900460ff16610f905760405162461bcd60e51b8152602060048201526017602482015276796f75206469646e74206a6f696e207468652067616d6560481b6044820152606401610aa4565b610f9a82826132e6565b60ff87166000908152600b60205260409020610fb68888610dbf565b6110025760405162461bcd60e51b815260206004820152601b60248201527f726567696f6e73206d75737420616c6c6f77206d6f76656d656e7400000000006044820152606401610aa4565b602254611010908790612f51565b6002546040516370a0823160e01b81523360048201526001600160a01b03909116906370a082319060240160206040518083038186803b15801561105357600080fd5b505afa158015611067573d6000803e3d6000fd5b505050506040513d601f19601f8201168201806040525081019061108b9190613dce565b10156110d95760405162461bcd60e51b815260206004820152600f60248201527f6e6f7420656e6f75676820706c656200000000000000000000000000000000006044820152606401610aa4565b6002546022546001600160a01b03909116906379cc67909033906110fe908a90612f51565b6040517fffffffff0000000000000000000000000000000000000000000000000000000060e085901b1681526001600160a01b0390921660048301526024820152604401600060405180830381600087803b15801561115c57600080fd5b505af1158015611170573d6000803e3d6000fd5b50505050600a81015461122d576040805160608101825233600090815260016020529190912054819060ff1660038111156111bb57634e487b7160e01b600052602160045260246000fd5b81524260208201526040018790528051600983018054909190829060ff191660018360038111156111fc57634e487b7160e01b600052602160045260246000fd5b02179055506020820151600182015560409091015160029091015560078101805461ff001916610100179055611242565b600b81015461123c9087612f75565b600b8201555b84156112515761125187613014565b33600081815260016020526040908190205490517fc4e34ad626652d533bf4e89ead153e45356ef70579e7ed3df6868098522c59389261129c92909160ff909116908c908b90613fe1565b60405180910390a15050505050505050565b6000546001600160a01b031633146113085760405162461bcd60e51b815260206004820181905260248201527f4f776e61626c653a2063616c6c6572206973206e6f7420746865206f776e65726044820152606401610aa4565b60006040518061010001604052808a81526020018981526020018881526020018781526020018681526020018581526020018481526020018381525090507fc65c428c415dee4a517fa483a510c47b886abace0d66df52eb44c025001e8122601c826040516113789291906140bb565b60405180910390a18051601c55602080820151601d556040820151601e556060820151601f556080820151905560a081015160215560c081015160225560e001516023555050505050505050565b6000546001600160a01b031633146114205760405162461bcd60e51b815260206004820181905260248201527f4f776e61626c653a2063616c6c6572206973206e6f7420746865206f776e65726044820152606401610aa4565b61142a6000613474565b565b336000908152600160205260409020548390610100900460ff1661148c5760405162461bcd60e51b8152602060048201526017602482015276796f75206469646e74206a6f696e207468652067616d6560481b6044820152606401610aa4565b60ff8082166000908152600b602052604090206007015461010090041680156114d85750601d5460ff82166000908152600b60205260409020600a015442916114d59190612f75565b11155b156114e6576114e681613014565b600a8311156115375760405162461bcd60e51b815260206004820152601560248201527f74686174732061206c6974746c652067726565647900000000000000000000006044820152606401610aa4565b60ff8085166000908152600b602052604090206007810154909161010090910416156115a55760405162461bcd60e51b815260206004820152601760248201527f726567696f6e206d7573742062652061742070656163650000000000000000006044820152606401610aa4565b60006115b1863361081e565b9050600181116116035760405162461bcd60e51b815260206004820152601860248201527f6e6f7420656e6f75676820706c656220746f20636c61696d00000000000000006044820152606401610aa4565b60006116276116206103e861161a856103e3612f51565b90612f5d565b8390612f69565b9050600061164f6116486103e861161a6116418b836143d9565b8790612f51565b8490612f69565b90506000871180156116615750600181105b1561166a575060015b600182101561167857600191505b81601b600061168f6000546001600160a01b031690565b6001600160a01b039081168252602080830193909352604091820160009081209490945589168352601b90915290208190556116ce6116488383612f75565b6002546040516340c10f1960e01b8152336004820152602481018390529194506001600160a01b0316906340c10f1990604401600060405180830381600087803b15801561171b57600080fd5b505af115801561172f573d6000803e3d6000fd5b5050336000908152600587016020526040812054600688018054929450925090811061176b57634e487b7160e01b600052603260045260246000fd5b9060005260206000209060040201600201819055504284600601856005016000336001600160a01b03166001600160a01b0316815260200190815260200160002054815481106117cb57634e487b7160e01b600052603260045260246000fd5b600091825260209182902060036004909202010191909155604080513381529182018590527f5d7299b66aabb778da1825694812a747c8cc5558eedf2ed14805d170ac12c086910161129c565b6005816004811061182857600080fd5b0154905081565b611837613881565b6040805160a08101909152600c60056000835b828210156118905783826003020160405180606001604052908160008201548152602001600182015481526020016002820154815250508152602001906001019061184a565b50505050905090565b6000546001600160a01b031633146118f35760405162461bcd60e51b815260206004820181905260248201527f4f776e61626c653a2063616c6c6572206973206e6f7420746865206f776e65726044820152606401610aa4565b6003546040516001600160a01b03909116904780156108fc02916000818181858888f1935050505015801561192c573d6000803e3d6000fd5b50565b61192c81613014565b6000546001600160a01b031633146119925760405162461bcd60e51b815260206004820181905260248201527f4f776e61626c653a2063616c6c6572206973206e6f7420746865206f776e65726044820152606401610aa4565b600a5461199f82846143b0565b60ff16146119ef5760405162461bcd60e51b815260206004820152601460248201527f6c61796f757420646f65736e74206164642075700000000000000000000000006044820152606401610aa4565b60245460ff1615611a425760405162461bcd60e51b815260206004820152601760248201527f6465706c6f796d656e7420616c726561647920646f6e650000000000000000006044820152606401610aa4565b60248054600160ff1990911617905560408051808201825260ff84811680835290841660209092018290526009805461ffff1916909117610100909202919091179055517f67f6525eaca4f48f8a485b077c12bf0ea7a945b3afb5cb3e58beac87be1f9fee90600090a15050565b6000805b60ff8085166000908152600b60205260409020600101549082161015611b515760ff8481166000908152600b602052604090206001018054828616928416908110611b0f57634e487b7160e01b600052603260045260246000fd5b60009182526020918290209181049091015460ff601f9092166101000a9004161415611b3f5760019150506108ff565b80611b4981614422565b915050611ab4565b5060009392505050565b336000908152601b6020526040902054611bb75760405162461bcd60e51b815260206004820152600760248201527f6e6f2066656573000000000000000000000000000000000000000000000000006044820152606401610aa4565b600254336000818152601b6020526040908190205490516340c10f1960e01b8152600481019290925260248201526001600160a01b03909116906340c10f1990604401600060405180830381600087803b158015611c1457600080fd5b505af1158015611c28573d6000803e3d6000fd5b5050336000818152601b6020908152604091829020548251938452908301527f9493e5bbe4e8e0ac67284469a2d677403d0378a85a59e341d3abc433d0d9a209935001905060405180910390a1565b601c54341015611cc95760405162461bcd60e51b815260206004820152601460248201527f796f75206469646e742070617920656e6f7567680000000000000000000000006044820152606401610aa4565b33600090815260016020526040902054610100900460ff1615611d2e5760405162461bcd60e51b815260206004820152601b60248201527f796f7520616c7265616479206a6f696e6564207468652067616d6500000000006044820152606401610aa4565b611d366134d1565b6002546040516340c10f1960e01b81523360048201526103e860248201526001600160a01b03909116906340c10f1990604401600060405180830381600087803b158015611d8357600080fd5b505af1158015611d97573d6000803e3d6000fd5b50505050565b336000908152600160205260409020548290610100900460ff16611dfd5760405162461bcd60e51b8152602060048201526017602482015276796f75206469646e74206a6f696e207468652067616d6560481b6044820152606401610aa4565b60ff8082166000908152600b60205260409020600701546101009004168015611e495750601d5460ff82166000908152600b60205260409020600a01544291611e469190612f75565b11155b15611e5757611e5781613014565b33600081815260016020526040902054849190610100900460ff16611eb85760405162461bcd60e51b8152602060048201526017602482015276796f75206469646e74206a6f696e207468652067616d6560481b6044820152606401610aa4565b611ec282826132e6565b60ff8086166000908152600b602090815260408083203384526001909252909120549091166003811115611f0657634e487b7160e01b600052602160045260246000fd5b600782015460ff166003811115611f2d57634e487b7160e01b600052602160045260246000fd5b148015611f4457506007810154610100900460ff16155b611f905760405162461bcd60e51b815260206004820181905260248201527f726567696f6e73206d75737420626520796f757273202b20706561636566756c6044820152606401610aa4565b602354611f9e908690612f51565b6002546040516370a0823160e01b81523360048201526001600160a01b03909116906370a082319060240160206040518083038186803b158015611fe157600080fd5b505afa158015611ff5573d6000803e3d6000fd5b505050506040513d601f19601f820116820180604052508101906120199190613dce565b10156120675760405162461bcd60e51b815260206004820152600f60248201527f6e6f7420656e6f75676820706c656200000000000000000000000000000000006044820152606401610aa4565b6002546023546001600160a01b03909116906379cc679090339061208c908990612f51565b6040517fffffffff0000000000000000000000000000000000000000000000000000000060e085901b1681526001600160a01b0390921660048301526024820152604401600060405180830381600087803b1580156120ea57600080fd5b505af11580156120fe573d6000803e3d6000fd5b5050506004820154612111915086612f75565b60048201556006810154158015906121775750336000818152600583016020526040902054600683018054909190811061215b57634e487b7160e01b600052603260045260246000fd5b60009182526020909120600490910201546001600160a01b0316145b156121e55733600090815260058201602052604081205460068301805490919081106121b357634e487b7160e01b600052603260045260246000fd5b906000526020600020906004020190506121da868260010154612f7590919063ffffffff16565b600190910155612278565b600681018054604080516080810182523380825260208083018b8152600084860181815242606087019081526001808a018b55998352848320965160048a02909701805473ffffffffffffffffffffffffffffffffffffffff19166001600160a01b0390981697909717875592519886019890985596516002850155516003909301929092558452600585019052909120555b6002810154600c9060ff16600581106122a157634e487b7160e01b600052603260045260246000fd5b6003020154600482015411156122f95760405162461bcd60e51b815260206004820152601460248201527f696e63726561736520726567696f6e20746965720000000000000000000000006044820152606401610aa4565b6040805133815260ff881660208201529081018690527f3ab7ef555bdaafd9071423a0606ac1a398b986bed0836915a89da92506d02f119060600160405180910390a1505050505050565b336000908152600160205260409020548390610100900460ff166123a45760405162461bcd60e51b8152602060048201526017602482015276796f75206469646e74206a6f696e207468652067616d6560481b6044820152606401610aa4565b60ff8082166000908152600b602052604090206007015461010090041680156123f05750601d5460ff82166000908152600b60205260409020600a015442916123ed9190612f75565b11155b156123fe576123fe81613014565b33600081815260016020526040902054869190610100900460ff1661245f5760405162461bcd60e51b8152602060048201526017602482015276796f75206469646e74206a6f696e207468652067616d6560481b6044820152606401610aa4565b61246982826132e6565b6124738787611ab0565b8015612483575061248386612f81565b6124cf5760405162461bcd60e51b815260206004820152601b60248201527f726567696f6e73206d75737420616c6c6f77206d6f76656d656e7400000000006044820152606401610aa4565b6022546000906124e0908790612f51565b6002546040516370a0823160e01b815233600482015291925082916001600160a01b03909116906370a082319060240160206040518083038186803b15801561252857600080fd5b505afa15801561253c573d6000803e3d6000fd5b505050506040513d601f19601f820116820180604052508101906125609190613dce565b10156125ae5760405162461bcd60e51b815260206004820152601060248201527f6e6f7420656e6f75676820706c656273000000000000000000000000000000006044820152606401610aa4565b6002546040517f79cc6790000000000000000000000000000000000000000000000000000000008152336004820152602481018390526001600160a01b03909116906379cc679090604401600060405180830381600087803b15801561261357600080fd5b505af1158015612627573d6000803e3d6000fd5b5050505060ff88166000908152600b60205260409020600381015461264c9088612f75565b60038201556002810154600460ff9091161080156126ac57506002810154600c9061267b9060ff16600161434c565b60ff166005811061269c57634e487b7160e01b600052603260045260246000fd5b6003020160010154816003015410155b156127265760028101546126c49060ff16600161434c565b60028201805460ff191660ff9290921691821790557f5f57eae78bd21328bef845d2e30f98d048ce6a1fd75e54aaa322fb0aed69e65e908a9061270890600161434c565b6040805160ff93841681529290911660208301520160405180910390a15b85801561273c57506007810154610100900460ff165b1561274a5761274a89613014565b6040805133815260ff8b1660208201529081018890527f7f2ae518b463c1e1e8cc5cb5ba5a49e55116e4d4fe7c382c51c6e4e21ab0d3099060600160405180910390a1505050505050505050565b600c81600581106127a857600080fd5b600302018054600182015460029092015490925083565b6000546001600160a01b031633146128195760405162461bcd60e51b815260206004820181905260248201527f4f776e61626c653a2063616c6c6572206973206e6f7420746865206f776e65726044820152606401610aa4565b6001600160a01b0381166128955760405162461bcd60e51b815260206004820152602660248201527f4f776e61626c653a206e6577206f776e657220697320746865207a65726f206160448201527f64647265737300000000000000000000000000000000000000000000000000006064820152608401610aa4565b61192c81613474565b600481600481106128ae57600080fd5b60209182820401919006915054906101000a900460ff1681565b6000546001600160a01b031633146129225760405162461bcd60e51b815260206004820181905260248201527f4f776e61626c653a2063616c6c6572206973206e6f7420746865206f776e65726044820152606401610aa4565b60245460ff16156129755760405162461bcd60e51b815260206004820152601760248201527f6465706c6f796d656e7420616c726561647920646f6e650000000000000000006044820152606401610aa4565b60005b88518160ff161015612ccc57600a898260ff16815181106129a957634e487b7160e01b600052603260045260246000fd5b602090810291909101810151825460018101845560009384528284209281049092018054601f9093166101000a60ff81810219909416928416029190911790558a51600b9183918d918616908110612a1157634e487b7160e01b600052603260045260246000fd5b602002602001015160ff1660ff1681526020019081526020016000209050898260ff1681518110612a5257634e487b7160e01b600052603260045260246000fd5b6020908102919091010151815460ff191660ff918216178255885189918416908110612a8e57634e487b7160e01b600052603260045260246000fd5b6020908102919091010151815461ff00191661010060ff9283160217825589518a918416908110612acf57634e487b7160e01b600052603260045260246000fd5b6020908102919091010151815462ff000019166201000060ff92831602178255875188918416908110612b1257634e487b7160e01b600052603260045260246000fd5b6020026020010151816001019080519060200190612b319291906138ca565b50858260ff1681518110612b5557634e487b7160e01b600052603260045260246000fd5b602090810291909101015160028201805460ff191660ff928316179055855186918416908110612b9557634e487b7160e01b600052603260045260246000fd5b60200260200101518160030181905550838260ff1681518110612bc857634e487b7160e01b600052603260045260246000fd5b602090810291909101015160078201805460ff19166001836003811115612bff57634e487b7160e01b600052602160045260246000fd5b0217905550828260ff1681518110612c2757634e487b7160e01b600052603260045260246000fd5b602002602001015181600801819055506005848360ff1681518110612c5c57634e487b7160e01b600052603260045260246000fd5b60200260200101516003811115612c8357634e487b7160e01b600052602160045260246000fd5b60ff1660048110612ca457634e487b7160e01b600052603260045260246000fd5b018054906000612cb383614407565b9190505550508080612cc490614422565b915050612978565b505050505050505050565b60ff82166000908152600b602090815260408083206001600160a01b038516845260058101909252822054600682015483928392909115801590612d5f5750856001600160a01b0316826006018281548110612d4357634e487b7160e01b600052603260045260246000fd5b60009182526020909120600490910201546001600160a01b0316145b8015612d9f57506000826006018281548110612d8b57634e487b7160e01b600052603260045260246000fd5b906000526020600020906004020160010154115b15612e2557816006018181548110612dc757634e487b7160e01b600052603260045260246000fd5b906000526020600020906004020160010154612de38383612e3a565b836006018381548110612e0657634e487b7160e01b600052603260045260246000fd5b9060005260206000209060040201600301549450945094505050612e33565b600080600094509450945050505b9250925092565b6000610e6e836006018381548110612e6257634e487b7160e01b600052603260045260246000fd5b906000526020600020906004020160020154612f4b612ec2866006018681548110612e9d57634e487b7160e01b600052603260045260246000fd5b9060005260206000209060040201600101548760040154612f5d90919063ffffffff16565b61161a612f0c886006018881548110612eeb57634e487b7160e01b600052603260045260246000fd5b90600052602060002090600402016003015442612f6990919063ffffffff16565b6002890154600c9060ff1660058110612f3557634e487b7160e01b600052603260045260246000fd5b6003020160020154612f5190919063ffffffff16565b90612f75565b6000610e6e8284614391565b6000610e6e8284614371565b6000610e6e82846143d9565b6000610e6e8284614334565b3360009081526001602052604081205460ff166003811115612fb357634e487b7160e01b600052602160045260246000fd5b60ff8084166000908152600b6020526040902060070154166003811115612fea57634e487b7160e01b600052602160045260246000fd5b1480156108ff57505060ff9081166000908152600b60205260409020600701546101009004161590565b60ff81166000908152600b60205260409020601d54600a820154429161303a9190612f75565b1015610b4057600080600061304e85610905565b92509250925082156132df57600784015460038501546009860154600b8701546040517f6c2519b1f17e91e287d6d8df3b8d86c508c5be17b77eac27e707671979f83485946130ab948b9460ff9283169491939216918990614161565b60405180910390a18115613130576003840181905560078401805461ff0019169055601f546130db904290612f75565b6008850155600284015460048501546130f99160ff16908390613640565b600486015560028501805460ff90921660ff1992831617905560098501805490911690556000600a8501819055600b8501556132df565b600384810182905560078501805461ff001916905560028501805460ff19169055600985015460059160ff9091169081111561317c57634e487b7160e01b600052602160045260246000fd5b60ff166004811061319d57634e487b7160e01b600052603260045260246000fd5b0180549060006131ac83614407565b9091555050600784015460059060ff1660038111156131db57634e487b7160e01b600052602160045260246000fd5b60ff16600481106131fc57634e487b7160e01b600052603260045260246000fd5b01805490600061320b836143f0565b9091555050600784015460059060ff16600381111561323a57634e487b7160e01b600052602160045260246000fd5b60ff166004811061325b57634e487b7160e01b600052603260045260246000fd5b01546132725760078401546132729060ff16613707565b600984015460078501805460ff9092169160ff191660018360038111156132a957634e487b7160e01b600052602160045260246000fd5b021790555060098401805460ff191690556000600a8501819055600b8501819055600485018190556132df906006860190613970565b5050505050565b60ff82166000908152600b602052604090206006810154158015906133595750336000818152600583016020526040902054600683018054909190811061333d57634e487b7160e01b600052603260045260246000fd5b60009182526020909120600490910201546001600160a01b0316145b80156133ab5750336000908152600582016020526040812054600683018054909190811061339757634e487b7160e01b600052603260045260246000fd5b906000526020600020906004020160010154115b1561346f5760006133bc848461081e565b336000908152600584016020526040902054600684018054929350839290919081106133f857634e487b7160e01b600052603260045260246000fd5b9060005260206000209060040201600201819055504282600601836005016000336001600160a01b03166001600160a01b03168152602001908152602001600020548154811061345857634e487b7160e01b600052603260045260246000fd5b906000526020600020906004020160030181905550505b505050565b600080546001600160a01b0383811673ffffffffffffffffffffffffffffffffffffffff19831681178455604051919092169283917f8be0079c531659141344cd1fd0a4f28419497f9722a3daafe3b4186f6b6457e09190a35050565b6004600360149054906101000a900460ff16600381111561350257634e487b7160e01b600052602160045260246000fd5b60ff166004811061352357634e487b7160e01b600052603260045260246000fd5b602081049091015460ff601f9092166101000a900416613630576040518060400160405280600360149054906101000a900460ff16600381111561357757634e487b7160e01b600052602160045260246000fd5b8152600160209182018190523360009081529181905260409091208251815491929091839160ff19909116908360038111156135c357634e487b7160e01b600052602160045260246000fd5b02179055506020919091015181549015156101000261ff00199091161790556003546040517f619772ff1bfa388a99d09f0cf36c4a8f3123c35b758bb60f4338d1e01efdae7691613620913391600160a01b900460ff1690613fc4565b60405180910390a161142a6137a5565b6136386137a5565b61142a6134d1565b6000808083815b8760ff168160ff16101561369e57600c8160ff166005811061367957634e487b7160e01b600052603260045260246000fd5b600302016001015487111561368c578092505b8061369681614422565b915050613647565b5084600c8360ff16600581106136c457634e487b7160e01b600052603260045260246000fd5b600302015410156136fb57600c8260ff16600581106136f357634e487b7160e01b600052603260045260246000fd5b600302015490505b90969095509350505050565b6001600482600381111561372b57634e487b7160e01b600052602160045260246000fd5b60ff166004811061374c57634e487b7160e01b600052603260045260246000fd5b602091828204019190066101000a81548160ff0219169083151502179055507f9c1bdf97271633e60e67a3f6161b71615792ad8ba6d454e65ae3f4623bc7816b8160405161379a9190614071565b60405180910390a150565b60038054600160a01b900460ff16908111156137d157634e487b7160e01b600052602160045260246000fd5b60ff16600314156137f957600380546000919060ff60a01b1916600160a01b835b0217905550565b60038054600160a01b900460ff169081111561382557634e487b7160e01b600052602160045260246000fd5b61383090600161434c565b60ff16600381111561385257634e487b7160e01b600052602160045260246000fd5b6003805460ff60a01b1916600160a01b83838111156137f257634e487b7160e01b600052602160045260246000fd5b6040518060a001604052806005905b6138b460405180606001604052806000815260200160008152602001600081525090565b8152602001906001900390816138905790505090565b82805482825590600052602060002090601f016020900481019282156139605791602002820160005b8382111561393157835183826101000a81548160ff021916908360ff16021790555092602001926001016020816000010492830192600103026138f3565b801561395e5782816101000a81549060ff0219169055600101602081600001049283019260010302613931565b505b5061396c929150613991565b5090565b508054600082556004029060005260206000209081019061192c91906139a6565b5b8082111561396c5760008155600101613992565b5b8082111561396c57805473ffffffffffffffffffffffffffffffffffffffff191681556000600182018190556002820181905560038201556004016139a7565b80356001600160a01b03811681146139fe57600080fd5b919050565b600082601f830112613a13578081fd5b81356020613a28613a2383614310565b6142df565b80838252828201915082860187848660051b8901011115613a47578586fd5b855b85811015613a8857813567ffffffffffffffff811115613a67578788fd5b613a758a87838c0101613b5b565b8552509284019290840190600101613a49565b5090979650505050505050565b600082601f830112613aa5578081fd5b81356020613ab5613a2383614310565b80838252828201915082860187848660051b8901011115613ad4578586fd5b855b85811015613a8857813560048110613aec578788fd5b84529284019290840190600101613ad6565b600082601f830112613b0e578081fd5b81356020613b1e613a2383614310565b80838252828201915082860187848660051b8901011115613b3d578586fd5b855b85811015613a8857813584529284019290840190600101613b3f565b600082601f830112613b6b578081fd5b81356020613b7b613a2383614310565b80838252828201915082860187848660051b8901011115613b9a578586fd5b855b85811015613a8857613bad82613bbf565b84529284019290840190600101613b9c565b803560ff811681146139fe57600080fd5b600060208284031215613be1578081fd5b610e6e826139e7565b60006101e0808385031215613bfd578182fd5b83601f840112613c0b578182fd5b613c13614293565b8084868487011115613c23578485fd5b8493505b6005841015613c75576060808289031215613c40578586fd5b613c486142bc565b82358152602080840135818301526040808501359083015290855260019590950194939093019201613c27565b5095945050505050565b600080600080600080600080610100898b031215613c9b578384fd5b883567ffffffffffffffff80821115613cb2578586fd5b613cbe8c838d01613b5b565b995060208b0135915080821115613cd3578586fd5b613cdf8c838d01613b5b565b985060408b0135915080821115613cf4578586fd5b613d008c838d01613b5b565b975060608b0135915080821115613d15578586fd5b613d218c838d01613a03565b965060808b0135915080821115613d36578586fd5b613d428c838d01613b5b565b955060a08b0135915080821115613d57578485fd5b613d638c838d01613afe565b945060c08b0135915080821115613d78578384fd5b613d848c838d01613a95565b935060e08b0135915080821115613d99578283fd5b50613da68b828c01613afe565b9150509295985092959890939650565b600060208284031215613dc7578081fd5b5035919050565b600060208284031215613ddf578081fd5b5051919050565b600080600080600080600080610100898b031215613e02578182fd5b505086359860208801359850604088013597606081013597506080810135965060a0810135955060c0810135945060e0013592509050565b600060208284031215613e4b578081fd5b610e6e82613bbf565b60008060408385031215613e66578182fd5b613e6f83613bbf565b9150613e7d602084016139e7565b90509250929050565b60008060408385031215613e98578182fd5b613ea183613bbf565b946020939093013593505050565b600080600060608486031215613ec3578081fd5b613ecc84613bbf565b925060208401359150613ee1604085016139e7565b90509250925092565b60008060408385031215613efc578182fd5b613f0583613bbf565b9150613e7d60208401613bbf565b60008060008060808587031215613f28578182fd5b613f3185613bbf565b9350613f3f60208601613bbf565b92506040850135915060608501358015158114613f5a578182fd5b939692955090935050565b6000815180845260208085019450808401835b83811015613f9757815160ff1687529582019590820190600101613f78565b509495945050505050565b60048110613fc057634e487b7160e01b600052602160045260246000fd5b9052565b6001600160a01b038316815260408101610e6e6020830184613fa2565b6001600160a01b038516815260808101613ffe6020830186613fa2565b60ff9390931660408201526060015292915050565b6101e08101818360005b60058110156140555781518051845260208082015181860152604091820151918501919091526060909301929091019060010161401d565b50505092915050565b602081526000610e6e6020830184613f65565b602081016108ff8284613fa2565b6040810161408d8285613fa2565b82151560208301529392505050565b606081016140aa8286613fa2565b602082019390935260400152919050565b8254815260018301546020820152600283015460408201526003830154606082015260048301546080820152600583015460a0820152600683015460c0820152600783015460e08201526102008101610e6e610100830184805182526020810151602083015260408101516040830152606081015160608301526080810151608083015260a081015160a083015260c081015160c083015260e081015160e08301525050565b60ff8716815260c081016141786020830188613fa2565b85604083015261418b6060830186613fa2565b83608083015282151560a0830152979650505050505050565b600061014060ff8d16835260ff8c16602084015260ff8b1660408401528060608401526141d38184018b613f65565b91505060ff881660808301528660a08301528560c08301526141f860e0830186613fa2565b921515610100820152610120015298975050505050505050565b60ff8b811682528a811660208301528981166040830152881660608201526080810187905260a08101869052610180810161425060c0830187613fa2565b84151560e08301528361010083015261426e61012083018451613fa2565b602083015161014083015260408301516101608301529b9a5050505050505050505050565b60405160a0810167ffffffffffffffff811182821017156142b6576142b6614458565b60405290565b6040516060810167ffffffffffffffff811182821017156142b6576142b6614458565b604051601f8201601f1916810167ffffffffffffffff8111828210171561430857614308614458565b604052919050565b600067ffffffffffffffff82111561432a5761432a614458565b5060051b60200190565b6000821982111561434757614347614442565b500190565b600060ff821660ff84168060ff0382111561436957614369614442565b019392505050565b60008261438c57634e487b7160e01b81526012600452602481fd5b500490565b60008160001904831182151516156143ab576143ab614442565b500290565b600060ff821660ff84168160ff04811182151516156143d1576143d1614442565b029392505050565b6000828210156143eb576143eb614442565b500390565b6000816143ff576143ff614442565b506000190190565b600060001982141561441b5761441b614442565b5060010190565b600060ff821660ff81141561443957614439614442565b60010192915050565b634e487b7160e01b600052601160045260246000fd5b634e487b7160e01b600052604160045260246000fdfea2646970667358221220a26589aa70b3494fed9a3b0dea4e145dc3c26fe2fcb0a693a7acefe2f8d765ff64736f6c63430008040033",
  "linkReferences": {},
  "deployedLinkReferences": {}
}