{
  "_format": "hh-sol-artifact-1",
  "contractName": "PhantomRiskV1",
  "sourceName": "contracts/PhantomRiskV1.sol",
  "abi": [
    {
      "inputs": [
        {
          "internalType": "contract Pleb",
          "name": "_pleb",
          "type": "address"
        },
        {
          "internalType": "address payable",
          "name": "_ticketRevenueRecipient",
          "type": "address"
        }
      ],
      "stateMutability": "nonpayable",
      "type": "constructor"
    },
    {
      "anonymous": false,
      "inputs": [
        {
          "indexed": false,
          "internalType": "address",
          "name": "player",
          "type": "address"
        },
        {
          "indexed": false,
          "internalType": "enum PhantomRiskV1.Faction",
          "name": "faction",
          "type": "uint8"
        },
        {
          "indexed": false,
          "internalType": "uint8",
          "name": "region",
          "type": "uint8"
        },
        {
          "indexed": false,
          "internalType": "uint256",
          "name": "soldier",
          "type": "uint256"
        }
      ],
      "name": "Attacked",
      "type": "event"
    },
    {
      "anonymous": false,
      "inputs": [
        {
          "indexed": false,
          "internalType": "address",
          "name": "player",
          "type": "address"
        },
        {
          "indexed": false,
          "internalType": "uint256",
          "name": "pleb",
          "type": "uint256"
        }
      ],
      "name": "ClaimedPleb",
      "type": "event"
    },
    {
      "anonymous": false,
      "inputs": [
        {
          "indexed": false,
          "internalType": "address",
          "name": "player",
          "type": "address"
        },
        {
          "indexed": false,
          "internalType": "uint8",
          "name": "region",
          "type": "uint8"
        },
        {
          "indexed": false,
          "internalType": "uint256",
          "name": "soldier",
          "type": "uint256"
        }
      ],
      "name": "DeployedGarrison",
      "type": "event"
    },
    {
      "anonymous": false,
      "inputs": [
        {
          "indexed": false,
          "internalType": "address",
          "name": "player",
          "type": "address"
        },
        {
          "indexed": false,
          "internalType": "uint8",
          "name": "region",
          "type": "uint8"
        },
        {
          "indexed": false,
          "internalType": "uint256",
          "name": "worker",
          "type": "uint256"
        }
      ],
      "name": "DeployedWorker",
      "type": "event"
    },
    {
      "anonymous": false,
      "inputs": [],
      "name": "DeploymentDone",
      "type": "event"
    },
    {
      "anonymous": false,
      "inputs": [
        {
          "indexed": false,
          "internalType": "enum PhantomRiskV1.Faction",
          "name": "faction",
          "type": "uint8"
        }
      ],
      "name": "FactionLost",
      "type": "event"
    },
    {
      "anonymous": false,
      "inputs": [
        {
          "indexed": false,
          "internalType": "address",
          "name": "account",
          "type": "address"
        },
        {
          "indexed": false,
          "internalType": "uint256",
          "name": "amount",
          "type": "uint256"
        }
      ],
      "name": "FeesClaimed",
      "type": "event"
    },
    {
      "anonymous": false,
      "inputs": [
        {
          "indexed": false,
          "internalType": "address",
          "name": "player",
          "type": "address"
        },
        {
          "indexed": false,
          "internalType": "enum PhantomRiskV1.Faction",
          "name": "faction",
          "type": "uint8"
        }
      ],
      "name": "JoinedGame",
      "type": "event"
    },
    {
      "anonymous": false,
      "inputs": [
        {
          "indexed": true,
          "internalType": "address",
          "name": "previousOwner",
          "type": "address"
        },
        {
          "indexed": true,
          "internalType": "address",
          "name": "newOwner",
          "type": "address"
        }
      ],
      "name": "OwnershipTransferred",
      "type": "event"
    },
    {
      "anonymous": false,
      "inputs": [
        {
          "indexed": false,
          "internalType": "uint8",
          "name": "region",
          "type": "uint8"
        },
        {
          "indexed": false,
          "internalType": "uint8",
          "name": "tier",
          "type": "uint8"
        }
      ],
      "name": "RegionTierIncreased",
      "type": "event"
    },
    {
      "anonymous": false,
      "inputs": [
        {
          "indexed": false,
          "internalType": "uint8",
          "name": "region",
          "type": "uint8"
        },
        {
          "indexed": false,
          "internalType": "enum PhantomRiskV1.Faction",
          "name": "defender",
          "type": "uint8"
        },
        {
          "indexed": false,
          "internalType": "uint256",
          "name": "defendingSoldier",
          "type": "uint256"
        },
        {
          "indexed": false,
          "internalType": "enum PhantomRiskV1.Faction",
          "name": "attacker",
          "type": "uint8"
        },
        {
          "indexed": false,
          "internalType": "uint256",
          "name": "attackingSoldier",
          "type": "uint256"
        },
        {
          "indexed": false,
          "internalType": "bool",
          "name": "defenderWon",
          "type": "bool"
        }
      ],
      "name": "ResolvedSiege",
      "type": "event"
    },
    {
      "anonymous": false,
      "inputs": [
        {
          "components": [
            {
              "internalType": "uint256",
              "name": "ticketPrice",
              "type": "uint256"
            },
            {
              "internalType": "uint256",
              "name": "rallyTime",
              "type": "uint256"
            },
            {
              "internalType": "uint256",
              "name": "siegeTime",
              "type": "uint256"
            },
            {
              "internalType": "uint256",
              "name": "siegeCooldown",
              "type": "uint256"
            },
            {
              "internalType": "uint256",
              "name": "overwhelming",
              "type": "uint256"
            },
            {
              "internalType": "uint256",
              "name": "overwhelmingPenalty",
              "type": "uint256"
            },
            {
              "internalType": "uint256",
              "name": "plebForSoldier",
              "type": "uint256"
            }
          ],
          "indexed": false,
          "internalType": "struct PhantomRiskV1.Settings",
          "name": "oldSettings",
          "type": "tuple"
        },
        {
          "components": [
            {
              "internalType": "uint256",
              "name": "ticketPrice",
              "type": "uint256"
            },
            {
              "internalType": "uint256",
              "name": "rallyTime",
              "type": "uint256"
            },
            {
              "internalType": "uint256",
              "name": "siegeTime",
              "type": "uint256"
            },
            {
              "internalType": "uint256",
              "name": "siegeCooldown",
              "type": "uint256"
            },
            {
              "internalType": "uint256",
              "name": "overwhelming",
              "type": "uint256"
            },
            {
              "internalType": "uint256",
              "name": "overwhelmingPenalty",
              "type": "uint256"
            },
            {
              "internalType": "uint256",
              "name": "plebForSoldier",
              "type": "uint256"
            }
          ],
          "indexed": false,
          "internalType": "struct PhantomRiskV1.Settings",
          "name": "newSettings",
          "type": "tuple"
        }
      ],
      "name": "SettingsChanged",
      "type": "event"
    },
    {
      "inputs": [
        {
          "internalType": "uint8",
          "name": "regionTo",
          "type": "uint8"
        },
        {
          "internalType": "uint8",
          "name": "regionFrom",
          "type": "uint8"
        },
        {
          "internalType": "uint256",
          "name": "soldierAmount",
          "type": "uint256"
        },
        {
          "internalType": "bool",
          "name": "resolvesSiege",
          "type": "bool"
        }
      ],
      "name": "attack",
      "outputs": [],
      "stateMutability": "nonpayable",
      "type": "function"
    },
    {
      "inputs": [],
      "name": "claimFees",
      "outputs": [],
      "stateMutability": "nonpayable",
      "type": "function"
    },
    {
      "inputs": [
        {
          "internalType": "uint8",
          "name": "_region",
          "type": "uint8"
        },
        {
          "internalType": "uint256",
          "name": "_frontendFee",
          "type": "uint256"
        },
        {
          "internalType": "address",
          "name": "_frontendProvider",
          "type": "address"
        }
      ],
      "name": "claimPleb",
      "outputs": [],
      "stateMutability": "nonpayable",
      "type": "function"
    },
    {
      "inputs": [],
      "name": "claimTicketRevenue",
      "outputs": [],
      "stateMutability": "nonpayable",
      "type": "function"
    },
    {
      "inputs": [
        {
          "internalType": "address",
          "name": "",
          "type": "address"
        }
      ],
      "name": "claimableFees",
      "outputs": [
        {
          "internalType": "uint256",
          "name": "",
          "type": "uint256"
        }
      ],
      "stateMutability": "view",
      "type": "function"
    },
    {
      "inputs": [
        {
          "internalType": "uint8[]",
          "name": "_regionId",
          "type": "uint8[]"
        },
        {
          "internalType": "uint8[]",
          "name": "_column",
          "type": "uint8[]"
        },
        {
          "internalType": "uint8[]",
          "name": "_row",
          "type": "uint8[]"
        },
        {
          "internalType": "uint8[][]",
          "name": "_neighbors",
          "type": "uint8[][]"
        },
        {
          "internalType": "uint8[]",
          "name": "_tier",
          "type": "uint8[]"
        },
        {
          "internalType": "uint256[]",
          "name": "_garrison",
          "type": "uint256[]"
        },
        {
          "internalType": "enum PhantomRiskV1.Faction[]",
          "name": "_controlledBy",
          "type": "uint8[]"
        },
        {
          "internalType": "uint256[]",
          "name": "_cantGetAttackedTill",
          "type": "uint256[]"
        }
      ],
      "name": "createRegions",
      "outputs": [],
      "stateMutability": "nonpayable",
      "type": "function"
    },
    {
      "inputs": [
        {
          "internalType": "uint8",
          "name": "regionTo",
          "type": "uint8"
        },
        {
          "internalType": "uint8",
          "name": "neighborRegion",
          "type": "uint8"
        },
        {
          "internalType": "uint256",
          "name": "soldierAmount",
          "type": "uint256"
        },
        {
          "internalType": "bool",
          "name": "resolvesSiege",
          "type": "bool"
        }
      ],
      "name": "deployGarrison",
      "outputs": [],
      "stateMutability": "nonpayable",
      "type": "function"
    },
    {
      "inputs": [
        {
          "internalType": "uint8",
          "name": "regionTo",
          "type": "uint8"
        },
        {
          "internalType": "uint256",
          "name": "workerAmount",
          "type": "uint256"
        }
      ],
      "name": "deployWorker",
      "outputs": [],
      "stateMutability": "nonpayable",
      "type": "function"
    },
    {
      "inputs": [],
      "name": "deploymentDone",
      "outputs": [
        {
          "internalType": "bool",
          "name": "",
          "type": "bool"
        }
      ],
      "stateMutability": "view",
      "type": "function"
    },
    {
      "inputs": [
        {
          "internalType": "uint256",
          "name": "",
          "type": "uint256"
        }
      ],
      "name": "factionDead",
      "outputs": [
        {
          "internalType": "bool",
          "name": "",
          "type": "bool"
        }
      ],
      "stateMutability": "view",
      "type": "function"
    },
    {
      "inputs": [
        {
          "internalType": "uint8",
          "name": "_region",
          "type": "uint8"
        },
        {
          "internalType": "address",
          "name": "_player",
          "type": "address"
        }
      ],
      "name": "getClaimablePleb",
      "outputs": [
        {
          "internalType": "uint256",
          "name": "",
          "type": "uint256"
        }
      ],
      "stateMutability": "view",
      "type": "function"
    },
    {
      "inputs": [
        {
          "internalType": "uint8",
          "name": "_region",
          "type": "uint8"
        },
        {
          "internalType": "address",
          "name": "_player",
          "type": "address"
        }
      ],
      "name": "getProductionByLord",
      "outputs": [
        {
          "internalType": "uint256",
          "name": "",
          "type": "uint256"
        },
        {
          "internalType": "uint256",
          "name": "",
          "type": "uint256"
        },
        {
          "internalType": "uint256",
          "name": "",
          "type": "uint256"
        }
      ],
      "stateMutability": "view",
      "type": "function"
    },
    {
      "inputs": [
        {
          "internalType": "uint8",
          "name": "_region",
          "type": "uint8"
        }
      ],
      "name": "getRegion",
      "outputs": [
        {
          "internalType": "uint8",
          "name": "id_",
          "type": "uint8"
        },
        {
          "internalType": "uint8",
          "name": "column_",
          "type": "uint8"
        },
        {
          "internalType": "uint8",
          "name": "row_",
          "type": "uint8"
        },
        {
          "internalType": "uint8[]",
          "name": "neighbors_",
          "type": "uint8[]"
        },
        {
          "internalType": "uint8",
          "name": "tier_",
          "type": "uint8"
        },
        {
          "internalType": "uint256",
          "name": "garrison_",
          "type": "uint256"
        },
        {
          "internalType": "uint256",
          "name": "totalWorker_",
          "type": "uint256"
        },
        {
          "internalType": "enum PhantomRiskV1.Faction",
          "name": "controlledBy_",
          "type": "uint8"
        },
        {
          "internalType": "bool",
          "name": "besieged_",
          "type": "bool"
        },
        {
          "internalType": "uint256",
          "name": "cantGetAttackedTill_",
          "type": "uint256"
        }
      ],
      "stateMutability": "view",
      "type": "function"
    },
    {
      "inputs": [],
      "name": "getRegionIds",
      "outputs": [
        {
          "internalType": "uint8[]",
          "name": "",
          "type": "uint8[]"
        }
      ],
      "stateMutability": "view",
      "type": "function"
    },
    {
      "inputs": [],
      "name": "getRegionTiers",
      "outputs": [
        {
          "components": [
            {
              "internalType": "uint256",
              "name": "workerLimit",
              "type": "uint256"
            },
            {
              "internalType": "uint256",
              "name": "requiredGarrison",
              "type": "uint256"
            },
            {
              "internalType": "uint256",
              "name": "plebPerSec",
              "type": "uint256"
            }
          ],
          "internalType": "struct PhantomRiskV1.RegionTier[5]",
          "name": "",
          "type": "tuple[5]"
        }
      ],
      "stateMutability": "view",
      "type": "function"
    },
    {
      "inputs": [
        {
          "internalType": "uint8",
          "name": "_region",
          "type": "uint8"
        }
      ],
      "name": "getSiege",
      "outputs": [
        {
          "internalType": "enum PhantomRiskV1.Faction",
          "name": "attacker_",
          "type": "uint8"
        },
        {
          "internalType": "uint256",
          "name": "attackedAt_",
          "type": "uint256"
        },
        {
          "internalType": "uint256",
          "name": "soldier_",
          "type": "uint256"
        }
      ],
      "stateMutability": "view",
      "type": "function"
    },
    {
      "inputs": [
        {
          "internalType": "uint8",
          "name": "_regionTo",
          "type": "uint8"
        },
        {
          "internalType": "uint8",
          "name": "_regionFrom",
          "type": "uint8"
        }
      ],
      "name": "isNeighbor",
      "outputs": [
        {
          "internalType": "bool",
          "name": "",
          "type": "bool"
        }
      ],
      "stateMutability": "view",
      "type": "function"
    },
    {
      "inputs": [],
      "name": "joinGame",
      "outputs": [],
      "stateMutability": "payable",
      "type": "function"
    },
    {
      "inputs": [],
      "name": "layout",
      "outputs": [
        {
          "internalType": "uint8",
          "name": "rows",
          "type": "uint8"
        },
        {
          "internalType": "uint8",
          "name": "columns",
          "type": "uint8"
        }
      ],
      "stateMutability": "view",
      "type": "function"
    },
    {
      "inputs": [],
      "name": "owner",
      "outputs": [
        {
          "internalType": "address",
          "name": "",
          "type": "address"
        }
      ],
      "stateMutability": "view",
      "type": "function"
    },
    {
      "inputs": [
        {
          "internalType": "address",
          "name": "",
          "type": "address"
        }
      ],
      "name": "player",
      "outputs": [
        {
          "internalType": "enum PhantomRiskV1.Faction",
          "name": "faction",
          "type": "uint8"
        },
        {
          "internalType": "bool",
          "name": "joined",
          "type": "bool"
        }
      ],
      "stateMutability": "view",
      "type": "function"
    },
    {
      "inputs": [],
      "name": "pleb",
      "outputs": [
        {
          "internalType": "contract Pleb",
          "name": "",
          "type": "address"
        }
      ],
      "stateMutability": "view",
      "type": "function"
    },
    {
      "inputs": [
        {
          "internalType": "uint8",
          "name": "_regionTo",
          "type": "uint8"
        },
        {
          "internalType": "uint8",
          "name": "_regionFrom",
          "type": "uint8"
        }
      ],
      "name": "regionAllowsAttack",
      "outputs": [
        {
          "internalType": "bool",
          "name": "",
          "type": "bool"
        }
      ],
      "stateMutability": "view",
      "type": "function"
    },
    {
      "inputs": [
        {
          "internalType": "uint256",
          "name": "",
          "type": "uint256"
        }
      ],
      "name": "regionIds",
      "outputs": [
        {
          "internalType": "uint8",
          "name": "",
          "type": "uint8"
        }
      ],
      "stateMutability": "view",
      "type": "function"
    },
    {
      "inputs": [
        {
          "internalType": "uint256",
          "name": "",
          "type": "uint256"
        }
      ],
      "name": "regionTiers",
      "outputs": [
        {
          "internalType": "uint256",
          "name": "workerLimit",
          "type": "uint256"
        },
        {
          "internalType": "uint256",
          "name": "requiredGarrison",
          "type": "uint256"
        },
        {
          "internalType": "uint256",
          "name": "plebPerSec",
          "type": "uint256"
        }
      ],
      "stateMutability": "view",
      "type": "function"
    },
    {
      "inputs": [
        {
          "internalType": "uint8",
          "name": "",
          "type": "uint8"
        }
      ],
      "name": "regions",
      "outputs": [
        {
          "internalType": "uint8",
          "name": "id",
          "type": "uint8"
        },
        {
          "internalType": "uint8",
          "name": "column",
          "type": "uint8"
        },
        {
          "internalType": "uint8",
          "name": "row",
          "type": "uint8"
        },
        {
          "internalType": "uint8",
          "name": "tier",
          "type": "uint8"
        },
        {
          "internalType": "uint256",
          "name": "garrison",
          "type": "uint256"
        },
        {
          "internalType": "uint256",
          "name": "totalWorker",
          "type": "uint256"
        },
        {
          "internalType": "enum PhantomRiskV1.Faction",
          "name": "controlledBy",
          "type": "uint8"
        },
        {
          "internalType": "bool",
          "name": "besieged",
          "type": "bool"
        },
        {
          "internalType": "uint256",
          "name": "cantGetAttackedTill",
          "type": "uint256"
        },
        {
          "components": [
            {
              "internalType": "enum PhantomRiskV1.Faction",
              "name": "attacker",
              "type": "uint8"
            },
            {
              "internalType": "uint256",
              "name": "attackedAt",
              "type": "uint256"
            },
            {
              "internalType": "uint256",
              "name": "soldier",
              "type": "uint256"
            }
          ],
          "internalType": "struct PhantomRiskV1.Siege",
          "name": "siege",
          "type": "tuple"
        }
      ],
      "stateMutability": "view",
      "type": "function"
    },
    {
      "inputs": [
        {
          "internalType": "uint256",
          "name": "",
          "type": "uint256"
        }
      ],
      "name": "regionsPerFaction",
      "outputs": [
        {
          "internalType": "uint256",
          "name": "",
          "type": "uint256"
        }
      ],
      "stateMutability": "view",
      "type": "function"
    },
    {
      "inputs": [],
      "name": "renounceOwnership",
      "outputs": [],
      "stateMutability": "nonpayable",
      "type": "function"
    },
    {
      "inputs": [
        {
          "internalType": "uint8",
          "name": "_region",
          "type": "uint8"
        }
      ],
      "name": "resolveSiege",
      "outputs": [],
      "stateMutability": "nonpayable",
      "type": "function"
    },
    {
      "inputs": [
        {
          "internalType": "uint8",
          "name": "_rows",
          "type": "uint8"
        },
        {
          "internalType": "uint8",
          "name": "_columns",
          "type": "uint8"
        }
      ],
      "name": "setDeploymentDone",
      "outputs": [],
      "stateMutability": "nonpayable",
      "type": "function"
    },
    {
      "inputs": [
        {
          "components": [
            {
              "internalType": "uint256",
              "name": "workerLimit",
              "type": "uint256"
            },
            {
              "internalType": "uint256",
              "name": "requiredGarrison",
              "type": "uint256"
            },
            {
              "internalType": "uint256",
              "name": "plebPerSec",
              "type": "uint256"
            }
          ],
          "internalType": "struct PhantomRiskV1.RegionTier[5]",
          "name": "tiers",
          "type": "tuple[5]"
        }
      ],
      "name": "setRegionTiers",
      "outputs": [],
      "stateMutability": "nonpayable",
      "type": "function"
    },
    {
      "inputs": [
        {
          "internalType": "uint256",
          "name": "_ticketPrice",
          "type": "uint256"
        },
        {
          "internalType": "uint256",
          "name": "_rallyTime",
          "type": "uint256"
        },
        {
          "internalType": "uint256",
          "name": "_siegeTime",
          "type": "uint256"
        },
        {
          "internalType": "uint256",
          "name": "_siegeCooldown",
          "type": "uint256"
        },
        {
          "internalType": "uint256",
          "name": "_overwhelming",
          "type": "uint256"
        },
        {
          "internalType": "uint256",
          "name": "_overwhelmingPenalty",
          "type": "uint256"
        },
        {
          "internalType": "uint256",
          "name": "_plebForSoldier",
          "type": "uint256"
        }
      ],
      "name": "setSettings",
      "outputs": [],
      "stateMutability": "nonpayable",
      "type": "function"
    },
    {
      "inputs": [],
      "name": "settings",
      "outputs": [
        {
          "internalType": "uint256",
          "name": "ticketPrice",
          "type": "uint256"
        },
        {
          "internalType": "uint256",
          "name": "rallyTime",
          "type": "uint256"
        },
        {
          "internalType": "uint256",
          "name": "siegeTime",
          "type": "uint256"
        },
        {
          "internalType": "uint256",
          "name": "siegeCooldown",
          "type": "uint256"
        },
        {
          "internalType": "uint256",
          "name": "overwhelming",
          "type": "uint256"
        },
        {
          "internalType": "uint256",
          "name": "overwhelmingPenalty",
          "type": "uint256"
        },
        {
          "internalType": "uint256",
          "name": "plebForSoldier",
          "type": "uint256"
        }
      ],
      "stateMutability": "view",
      "type": "function"
    },
    {
      "inputs": [
        {
          "internalType": "uint8",
          "name": "_region",
          "type": "uint8"
        }
      ],
      "name": "siegeOutcome",
      "outputs": [
        {
          "internalType": "bool",
          "name": "",
          "type": "bool"
        },
        {
          "internalType": "bool",
          "name": "",
          "type": "bool"
        },
        {
          "internalType": "uint256",
          "name": "",
          "type": "uint256"
        }
      ],
      "stateMutability": "view",
      "type": "function"
    },
    {
      "inputs": [],
      "name": "ticketRevenueRecipient",
      "outputs": [
        {
          "internalType": "address payable",
          "name": "",
          "type": "address"
        }
      ],
      "stateMutability": "view",
      "type": "function"
    },
    {
      "inputs": [
        {
          "internalType": "address",
          "name": "newOwner",
          "type": "address"
        }
      ],
      "name": "transferOwnership",
      "outputs": [],
      "stateMutability": "nonpayable",
      "type": "function"
    }
  ],
  "bytecode": "0x60806040523480156200001157600080fd5b506040516200469338038062004693833981016040819052620000349162000262565b6200003f3362000097565b600280546001600160a01b038085166001600160a01b031992831617835560038054918516919092161781556200008f91678ac7230489e8000091617080916201518091620546009180620000e7565b5050620002b9565b600080546001600160a01b038381166001600160a01b0319831681178455604051919092169283917f8be0079c531659141344cd1fd0a4f28419497f9722a3daafe3b4186f6b6457e09190a35050565b6000546001600160a01b03163314620001465760405162461bcd60e51b815260206004820181905260248201527f4f776e61626c653a2063616c6c6572206973206e6f7420746865206f776e6572604482015260640160405180910390fd5b6040805160e0808201835289825260208083018a81528385018a815260608086018b815260808088018c815260a0808a018d815260c0808c018e81528d51601c548152601d54818d0152601e549e81019e909e52601f54978e01979097529854938c0193909352602154908b0152602254968a019690965287519689019690965292516101008801529051610120870152905161014086015290516101608501529051610180840152516101a0830152907f9e3734a8b59f598f749d5c081c1e7ab7b56bcdd30ee3741a0a5f48948dca74d9906101c00160405180910390a18051601c55602080820151601d556040820151601e556060820151601f556080820151905560a081015160215560c0015160225550505050505050565b6000806040838503121562000275578182fd5b82516200028281620002a0565b60208401519092506200029581620002a0565b809150509250929050565b6001600160a01b0381168114620002b657600080fd5b50565b6143ca80620002c96000396000f3fe60806040526004361061024e5760003560e01c806384b17f9c11610138578063d4f77b1c116100b0578063ea3f63c11161007f578063f478863311610064578063f4788633146107b4578063f64cad0d146107d4578063ff99dcac146107f457600080fd5b8063ea3f63c114610759578063f2fde38b1461079457600080fd5b8063d4f77b1c146106ad578063e06174e4146106b5578063e2d7ef0314610719578063e8e92b381461073957600080fd5b8063ad72194811610107578063bf14e7c7116100ec578063bf14e7c714610658578063cb687e8f14610678578063d294f0931461069857600080fd5b8063ad721948146105e2578063bb8dbf801461060257600080fd5b806384b17f9c1461056d5780638da5cb5b1461058d578063a33e751e146105ab578063a87cfcc9146105cd57600080fd5b80634c54e1b5116101cb57806367c93d951161019a5780637be721c91161017f5780637be721c9146105005780637e0b249214610520578063815b24c71461054d57600080fd5b806367c93d95146104cb578063715018a6146104eb57600080fd5b80634c54e1b514610418578063507ef0011461045f5780635223ae5a146104895780635a5212ce146104ab57600080fd5b80632f63ebc9116102225780633ca378c2116102075780633ca378c21461037a57806346eae8dd146103ac5780634919522a146103e257600080fd5b80632f63ebc91461031d578063320e37571461035a57600080fd5b80621676341461025357806301860cc614610295578063023b27f5146102b757806323081c16146102ef575b600080fd5b34801561025f57600080fd5b506009546102769060ff8082169161010090041682565b6040805160ff9384168152929091166020830152015b60405180910390f35b3480156102a157600080fd5b506102b56102b0366004613dbb565b610814565b005b3480156102c357600080fd5b506003546102d7906001600160a01b031681565b6040516001600160a01b03909116815260200161028c565b3480156102fb57600080fd5b5061030f61030a366004613e20565b61098f565b60405190815260200161028c565b34801561032957600080fd5b5061033d610338366004613e06565b610b87565b60408051931515845291151560208401529082015260600161028c565b34801561036657600080fd5b506102b5610375366004613bbf565b610cd0565b34801561038657600080fd5b5061039a610395366004613d8b565b610dc1565b60405160ff909116815260200161028c565b3480156103b857600080fd5b506103cc6103c7366004613e06565b610df5565b60405161028c9a99989796959493929190614138565b3480156103ee57600080fd5b506104026103fd366004613e06565b610ebe565b60405161028c9a999897969594939291906140ca565b34801561042457600080fd5b50610451610433366004613ba5565b60016020526000908152604090205460ff8082169161010090041682565b60405161028c92919061404b565b34801561046b57600080fd5b506023546104799060ff1681565b604051901515815260200161028c565b34801561049557600080fd5b5061049e610fc6565b60405161028c919061402a565b3480156104b757600080fd5b506104796104c6366004613eb6565b61103c565b3480156104d757600080fd5b506102b56104e6366004613edf565b6110f2565b3480156104f757600080fd5b506102b561152b565b34801561050c57600080fd5b506102b561051b366004613e7b565b611591565b34801561052c57600080fd5b5061030f61053b366004613ba5565b601b6020526000908152604090205481565b34801561055957600080fd5b5061030f610568366004613d8b565b611977565b34801561057957600080fd5b506002546102d7906001600160a01b031681565b34801561059957600080fd5b506000546001600160a01b03166102d7565b3480156105b757600080fd5b506105c061198e565b60405161028c9190613fdf565b3480156105d957600080fd5b506102b56119f8565b3480156105ee57600080fd5b506102b56105fd366004613e06565b611a8e565b34801561060e57600080fd5b5061064961061d366004613e06565b60ff9081166000908152600b602081905260409091206009810154600a82015491909201549190921692565b60405161028c93929190614068565b34801561066457600080fd5b506102b5610673366004613eb6565b611a97565b34801561068457600080fd5b50610479610693366004613eb6565b611c0f565b3480156106a457600080fd5b506102b5611cba565b6102b5611dd6565b3480156106c157600080fd5b50601c54601d54601e54601f546020546021546022546106e49695949392919087565b604080519788526020880196909652948601939093526060850191909152608084015260a083015260c082015260e00161028c565b34801561072557600080fd5b506102b5610734366004613e52565b611efc565b34801561074557600080fd5b506102b5610754366004613edf565b61245e565b34801561076557600080fd5b50610779610774366004613d8b565b612899565b6040805193845260208401929092529082015260600161028c565b3480156107a057600080fd5b506102b56107af366004613ba5565b6128c0565b3480156107c057600080fd5b506104796107cf366004613d8b565b61299f565b3480156107e057600080fd5b506102b56107ef366004613c54565b6129c9565b34801561080057600080fd5b5061077961080f366004613e20565b612dd8565b6000546001600160a01b031633146108735760405162461bcd60e51b815260206004820181905260248201527f4f776e61626c653a2063616c6c6572206973206e6f7420746865206f776e657260448201526064015b60405180910390fd5b6040805160e0808201835289825260208083018a81528385018a815260608086018b815260808088018c815260a0808a018d815260c0808c018e81528d51601c548152601d54818d0152601e549e81019e909e52601f54978e01979097529854938c0193909352602154908b0152602254968a019690965287519689019690965292516101008801529051610120870152905161014086015290516101608501529051610180840152516101a0830152907f9e3734a8b59f598f749d5c081c1e7ab7b56bcdd30ee3741a0a5f48948dca74d9906101c00160405180910390a18051601c55602080820151601d556040820151601e556060820151601f556080820151905560a081015160215560c0015160225550505050505050565b60ff82166000908152600b602090815260408083206001600160a01b038516845260058101909252822054600682015415801590610a115750836001600160a01b03168260060182815481106109f557634e487b7160e01b600052603260045260246000fd5b60009182526020909120600490910201546001600160a01b0316145b8015610a5157506000826006018281548110610a3d57634e487b7160e01b600052603260045260246000fd5b906000526020600020906004020160010154115b15610b7a57610b71826006018281548110610a7c57634e487b7160e01b600052603260045260246000fd5b906000526020600020906004020160020154610b6b610adc856006018581548110610ab757634e487b7160e01b600052603260045260246000fd5b9060005260206000209060040201600101548660040154612f2690919063ffffffff16565b610b65610b26876006018781548110610b0557634e487b7160e01b600052603260045260246000fd5b90600052602060002090600402016003015442612f3290919063ffffffff16565b6002880154600c9060ff1660058110610b4f57634e487b7160e01b600052603260045260246000fd5b6003020160020154612f3e90919063ffffffff16565b90612f26565b90612f4a565b92505050610b81565b6000925050505b92915050565b60ff81166000908152600b6020819052604082209081015482918291610bae906064612f3e565b602054610bcb90610bc09060646142ff565b600384015490612f3e565b10610c0257602154600b8201546001918291610bf691610beb9190612f26565b600385015490612f32565b93509350935050610cc9565b6003810154610c12906064612f3e565b602054610c2f90610c249060646142ff565b600b84015490612f3e565b10610c625760016000610bf6610c57601c600501548560030154612f2690919063ffffffff16565b600b85015490612f32565b601e54600a8201544291610c769190612f4a565b1015610cbc57600b810154600382015410610ca357600b81015460038201546001918291610bf691612f32565b6003810154600b820154600191600091610bf691612f32565b6000806000935093509350505b9193909250565b6000546001600160a01b03163314610d2a5760405162461bcd60e51b815260206004820181905260248201527f4f776e61626c653a2063616c6c6572206973206e6f7420746865206f776e6572604482015260640161086a565b60005b60058160ff161015610dbd57818160ff1660058110610d5c57634e487b7160e01b600052603260045260246000fd5b6020020151600c8260ff1660058110610d8557634e487b7160e01b600052603260045260246000fd5b600302016000820151816000015560208201518160010155604082015181600201559050508080610db590614348565b915050610d2d565b5050565b600a8181548110610dd157600080fd5b9060005260206000209060209182820401919006915054906101000a900460ff1681565b600b60205260009081526040908190208054600282015460038084015460048501546007860154600887015488516060810190995260098801805460ff808a169b610100808c0483169c62010000909c0483169b9a83169a989997988784169891909704831696949193919284921690811115610e8257634e487b7160e01b600052602160045260246000fd5b6003811115610ea157634e487b7160e01b600052602160045260246000fd5b81526020016001820154815260200160028201548152505090508a565b60ff8082166000908152600b60209081526040808320805460018201805484518187028101870190955280855282881697610100840481169762010000909404169560609593948594859485948594859493929190830182828015610f6057602002820191906000526020600020906000905b825461010083900a900460ff16815260206001928301818104948501949093039092029101808411610f315790505b505050505097508060020160009054906101000a900460ff16965080600301549550806004015494508060070160009054906101000a900460ff1693508060070160019054906101000a900460ff16925080600801549150509193959799509193959799565b6060600a80548060200260200160405190810160405280929190818152602001828054801561103257602002820191906000526020600020906000905b825461010083900a900460ff168152602060019283018181049485019490930390920291018084116110035790505b5050505050905090565b60006110488383611c0f565b8015611058575061105882612f56565b80156110cb57503360009081526001602052604090205460ff16600381111561109157634e487b7160e01b600052602160045260246000fd5b60ff8085166000908152600b60205260409020600701541660038111156110c857634e487b7160e01b600052602160045260246000fd5b14155b80156110eb575060ff83166000908152600b602052604090206008015442115b9392505050565b336000908152600160205260409020548390610100900460ff166111525760405162461bcd60e51b8152602060048201526017602482015276796f75206469646e74206a6f696e207468652067616d6560481b604482015260640161086a565b60ff8082166000908152600b6020526040902060070154610100900416801561119e5750601d5460ff82166000908152600b60205260409020600a0154429161119b9190612f4a565b11155b156111ac576111ac81612fe9565b33600081815260016020526040902054859190610100900460ff1661120d5760405162461bcd60e51b8152602060048201526017602482015276796f75206469646e74206a6f696e207468652067616d6560481b604482015260640161086a565b61121782826132bb565b60ff87166000908152600b60205260409020611233888861103c565b61127f5760405162461bcd60e51b815260206004820152601b60248201527f726567696f6e73206d75737420616c6c6f77206d6f76656d656e740000000000604482015260640161086a565b60225461128d908790612f3e565b6002546040516370a0823160e01b81523360048201526001600160a01b03909116906370a082319060240160206040518083038186803b1580156112d057600080fd5b505afa1580156112e4573d6000803e3d6000fd5b505050506040513d601f19601f820116820180604052508101906113089190613da3565b10156113565760405162461bcd60e51b815260206004820152600f60248201527f6e6f7420656e6f75676820706c65620000000000000000000000000000000000604482015260640161086a565b6002546022546001600160a01b03909116906379cc679090339061137b908a90612f3e565b6040517fffffffff0000000000000000000000000000000000000000000000000000000060e085901b1681526001600160a01b0390921660048301526024820152604401600060405180830381600087803b1580156113d957600080fd5b505af11580156113ed573d6000803e3d6000fd5b50505050600a8101546114aa576040805160608101825233600090815260016020529190912054819060ff16600381111561143857634e487b7160e01b600052602160045260246000fd5b81524260208201526040018790528051600983018054909190829060ff1916600183600381111561147957634e487b7160e01b600052602160045260246000fd5b02179055506020820151600182015560409091015160029091015560078101805461ff0019166101001790556114bf565b600b8101546114b99087612f4a565b600b8201555b84156114ce576114ce87612fe9565b33600081815260016020526040908190205490517fc4e34ad626652d533bf4e89ead153e45356ef70579e7ed3df6868098522c59389261151992909160ff909116908c908b90613fad565b60405180910390a15050505050505050565b6000546001600160a01b031633146115855760405162461bcd60e51b815260206004820181905260248201527f4f776e61626c653a2063616c6c6572206973206e6f7420746865206f776e6572604482015260640161086a565b61158f6000613449565b565b336000908152600160205260409020548390610100900460ff166115f15760405162461bcd60e51b8152602060048201526017602482015276796f75206469646e74206a6f696e207468652067616d6560481b604482015260640161086a565b60ff8082166000908152600b6020526040902060070154610100900416801561163d5750601d5460ff82166000908152600b60205260409020600a0154429161163a9190612f4a565b11155b1561164b5761164b81612fe9565b600a83111561169c5760405162461bcd60e51b815260206004820152601560248201527f74686174732061206c6974746c65206772656564790000000000000000000000604482015260640161086a565b60ff8085166000908152600b6020526040902060078101549091610100909104161561170a5760405162461bcd60e51b815260206004820152601760248201527f726567696f6e206d757374206265206174207065616365000000000000000000604482015260640161086a565b6000611716863361098f565b9050600181116117685760405162461bcd60e51b815260206004820152601860248201527f6e6f7420656e6f75676820706c656220746f20636c61696d0000000000000000604482015260640161086a565b600061178661177f6103e8610b65856103e3612f3e565b8390612f32565b905060006117ae6117a76103e8610b656117a08b836142ff565b8790612f3e565b8490612f32565b90506000871180156117c05750600181105b156117c9575060015b60018210156117d757600191505b81601b60006117ee6000546001600160a01b031690565b6001600160a01b039081168252602080830193909352604091820160009081209490945589168352601b909152902081905561182d6117a78383612f4a565b6002546040516340c10f1960e01b8152336004820152602481018390529194506001600160a01b0316906340c10f1990604401600060405180830381600087803b15801561187a57600080fd5b505af115801561188e573d6000803e3d6000fd5b505033600090815260058701602052604081205460068801805492945092509081106118ca57634e487b7160e01b600052603260045260246000fd5b9060005260206000209060040201600201819055504284600601856005016000336001600160a01b03166001600160a01b03168152602001908152602001600020548154811061192a57634e487b7160e01b600052603260045260246000fd5b600091825260209182902060036004909202010191909155604080513381529182018590527f5d7299b66aabb778da1825694812a747c8cc5558eedf2ed14805d170ac12c0869101611519565b6005816004811061198757600080fd5b0154905081565b611996613856565b6040805160a08101909152600c60056000835b828210156119ef578382600302016040518060600160405290816000820154815260200160018201548152602001600282015481525050815260200190600101906119a9565b50505050905090565b6000546001600160a01b03163314611a525760405162461bcd60e51b815260206004820181905260248201527f4f776e61626c653a2063616c6c6572206973206e6f7420746865206f776e6572604482015260640161086a565b6003546040516001600160a01b03909116904780156108fc02916000818181858888f19350505050158015611a8b573d6000803e3d6000fd5b50565b611a8b81612fe9565b6000546001600160a01b03163314611af15760405162461bcd60e51b815260206004820181905260248201527f4f776e61626c653a2063616c6c6572206973206e6f7420746865206f776e6572604482015260640161086a565b600a54611afe82846142d6565b60ff1614611b4e5760405162461bcd60e51b815260206004820152601460248201527f6c61796f757420646f65736e7420616464207570000000000000000000000000604482015260640161086a565b60235460ff1615611ba15760405162461bcd60e51b815260206004820152601760248201527f6465706c6f796d656e7420616c726561647920646f6e65000000000000000000604482015260640161086a565b60238054600160ff1990911617905560408051808201825260ff84811680835290841660209092018290526009805461ffff1916909117610100909202919091179055517f67f6525eaca4f48f8a485b077c12bf0ea7a945b3afb5cb3e58beac87be1f9fee90600090a15050565b6000805b60ff8085166000908152600b60205260409020600101549082161015611cb05760ff8481166000908152600b602052604090206001018054828616928416908110611c6e57634e487b7160e01b600052603260045260246000fd5b60009182526020918290209181049091015460ff601f9092166101000a9004161415611c9e576001915050610b81565b80611ca881614348565b915050611c13565b5060009392505050565b336000908152601b6020526040902054611d165760405162461bcd60e51b815260206004820152600760248201527f6e6f206665657300000000000000000000000000000000000000000000000000604482015260640161086a565b600254336000818152601b6020526040908190205490516340c10f1960e01b8152600481019290925260248201526001600160a01b03909116906340c10f1990604401600060405180830381600087803b158015611d7357600080fd5b505af1158015611d87573d6000803e3d6000fd5b5050336000818152601b6020908152604091829020548251938452908301527f9493e5bbe4e8e0ac67284469a2d677403d0378a85a59e341d3abc433d0d9a209935001905060405180910390a1565b601c54341015611e285760405162461bcd60e51b815260206004820152601460248201527f796f75206469646e742070617920656e6f756768000000000000000000000000604482015260640161086a565b33600090815260016020526040902054610100900460ff1615611e8d5760405162461bcd60e51b815260206004820152601b60248201527f796f7520616c7265616479206a6f696e6564207468652067616d650000000000604482015260640161086a565b611e956134a6565b6002546040516340c10f1960e01b81523360048201526103e860248201526001600160a01b03909116906340c10f1990604401600060405180830381600087803b158015611ee257600080fd5b505af1158015611ef6573d6000803e3d6000fd5b50505050565b336000908152600160205260409020548290610100900460ff16611f5c5760405162461bcd60e51b8152602060048201526017602482015276796f75206469646e74206a6f696e207468652067616d6560481b604482015260640161086a565b60ff8082166000908152600b60205260409020600701546101009004168015611fa85750601d5460ff82166000908152600b60205260409020600a01544291611fa59190612f4a565b11155b15611fb657611fb681612fe9565b33600081815260016020526040902054849190610100900460ff166120175760405162461bcd60e51b8152602060048201526017602482015276796f75206469646e74206a6f696e207468652067616d6560481b604482015260640161086a565b61202182826132bb565b60ff8086166000908152600b60209081526040808320338452600190925290912054909116600381111561206557634e487b7160e01b600052602160045260246000fd5b600782015460ff16600381111561208c57634e487b7160e01b600052602160045260246000fd5b1480156120a357506007810154610100900460ff16155b6120ef5760405162461bcd60e51b815260206004820181905260248201527f726567696f6e73206d75737420626520796f757273202b20706561636566756c604482015260640161086a565b6002546040516370a0823160e01b815233600482015286916001600160a01b0316906370a082319060240160206040518083038186803b15801561213257600080fd5b505afa158015612146573d6000803e3d6000fd5b505050506040513d601f19601f8201168201806040525081019061216a9190613da3565b10156121b85760405162461bcd60e51b815260206004820152600f60248201527f6e6f7420656e6f75676820706c65620000000000000000000000000000000000604482015260640161086a565b60025460405163079cc67960e41b8152336004820152602481018790526001600160a01b03909116906379cc679090604401600060405180830381600087803b15801561220457600080fd5b505af1158015612218573d6000803e3d6000fd5b505050600482015461222b915086612f4a565b60048201556006810154158015906122915750336000818152600583016020526040902054600683018054909190811061227557634e487b7160e01b600052603260045260246000fd5b60009182526020909120600490910201546001600160a01b0316145b156122ff5733600090815260058201602052604081205460068301805490919081106122cd57634e487b7160e01b600052603260045260246000fd5b906000526020600020906004020190506122f4868260010154612f4a90919063ffffffff16565b600190910155612392565b600681018054604080516080810182523380825260208083018b8152600084860181815242606087019081526001808a018b55998352848320965160048a02909701805473ffffffffffffffffffffffffffffffffffffffff19166001600160a01b0390981697909717875592519886019890985596516002850155516003909301929092558452600585019052909120555b6002810154600c9060ff16600581106123bb57634e487b7160e01b600052603260045260246000fd5b6003020154600482015411156124135760405162461bcd60e51b815260206004820152601460248201527f696e63726561736520726567696f6e2074696572000000000000000000000000604482015260640161086a565b6040805133815260ff881660208201529081018690527f3ab7ef555bdaafd9071423a0606ac1a398b986bed0836915a89da92506d02f119060600160405180910390a1505050505050565b336000908152600160205260409020548390610100900460ff166124be5760405162461bcd60e51b8152602060048201526017602482015276796f75206469646e74206a6f696e207468652067616d6560481b604482015260640161086a565b60ff8082166000908152600b6020526040902060070154610100900416801561250a5750601d5460ff82166000908152600b60205260409020600a015442916125079190612f4a565b11155b156125185761251881612fe9565b33600081815260016020526040902054869190610100900460ff166125795760405162461bcd60e51b8152602060048201526017602482015276796f75206469646e74206a6f696e207468652067616d6560481b604482015260640161086a565b61258382826132bb565b61258d8787611c0f565b801561259d575061259d86612f56565b6125e95760405162461bcd60e51b815260206004820152601b60248201527f726567696f6e73206d75737420616c6c6f77206d6f76656d656e740000000000604482015260640161086a565b6022546000906125fa908790612f3e565b6002546040516370a0823160e01b815233600482015291925082916001600160a01b03909116906370a082319060240160206040518083038186803b15801561264257600080fd5b505afa158015612656573d6000803e3d6000fd5b505050506040513d601f19601f8201168201806040525081019061267a9190613da3565b10156126c85760405162461bcd60e51b815260206004820152601060248201527f6e6f7420656e6f75676820706c65627300000000000000000000000000000000604482015260640161086a565b60025460405163079cc67960e41b8152336004820152602481018390526001600160a01b03909116906379cc679090604401600060405180830381600087803b15801561271457600080fd5b505af1158015612728573d6000803e3d6000fd5b5050505060ff88166000908152600b60205260409020600381015461274d9088612f4a565b60038201556002810154600560ff9091161080156127ad57506002810154600c9061277c9060ff166001614272565b60ff166005811061279d57634e487b7160e01b600052603260045260246000fd5b6003020160010154816003015410155b156128275760028101546127c59060ff166001614272565b60028201805460ff191660ff9290921691821790557f5f57eae78bd21328bef845d2e30f98d048ce6a1fd75e54aaa322fb0aed69e65e908a90612809906001614272565b6040805160ff93841681529290911660208301520160405180910390a15b85801561283d57506007810154610100900460ff165b1561284b5761284b89612fe9565b6040805133815260ff8b1660208201529081018890527f7f2ae518b463c1e1e8cc5cb5ba5a49e55116e4d4fe7c382c51c6e4e21ab0d3099060600160405180910390a1505050505050505050565b600c81600581106128a957600080fd5b600302018054600182015460029092015490925083565b6000546001600160a01b0316331461291a5760405162461bcd60e51b815260206004820181905260248201527f4f776e61626c653a2063616c6c6572206973206e6f7420746865206f776e6572604482015260640161086a565b6001600160a01b0381166129965760405162461bcd60e51b815260206004820152602660248201527f4f776e61626c653a206e6577206f776e657220697320746865207a65726f206160448201527f6464726573730000000000000000000000000000000000000000000000000000606482015260840161086a565b611a8b81613449565b600481600481106129af57600080fd5b60209182820401919006915054906101000a900460ff1681565b6000546001600160a01b03163314612a235760405162461bcd60e51b815260206004820181905260248201527f4f776e61626c653a2063616c6c6572206973206e6f7420746865206f776e6572604482015260640161086a565b60235460ff1615612a765760405162461bcd60e51b815260206004820152601760248201527f6465706c6f796d656e7420616c726561647920646f6e65000000000000000000604482015260640161086a565b60005b88518160ff161015612dcd57600a898260ff1681518110612aaa57634e487b7160e01b600052603260045260246000fd5b602090810291909101810151825460018101845560009384528284209281049092018054601f9093166101000a60ff81810219909416928416029190911790558a51600b9183918d918616908110612b1257634e487b7160e01b600052603260045260246000fd5b602002602001015160ff1660ff1681526020019081526020016000209050898260ff1681518110612b5357634e487b7160e01b600052603260045260246000fd5b6020908102919091010151815460ff191660ff918216178255885189918416908110612b8f57634e487b7160e01b600052603260045260246000fd5b6020908102919091010151815461ff00191661010060ff9283160217825589518a918416908110612bd057634e487b7160e01b600052603260045260246000fd5b6020908102919091010151815462ff000019166201000060ff92831602178255875188918416908110612c1357634e487b7160e01b600052603260045260246000fd5b6020026020010151816001019080519060200190612c3292919061389f565b50858260ff1681518110612c5657634e487b7160e01b600052603260045260246000fd5b602090810291909101015160028201805460ff191660ff928316179055855186918416908110612c9657634e487b7160e01b600052603260045260246000fd5b60200260200101518160030181905550838260ff1681518110612cc957634e487b7160e01b600052603260045260246000fd5b602090810291909101015160078201805460ff19166001836003811115612d0057634e487b7160e01b600052602160045260246000fd5b0217905550828260ff1681518110612d2857634e487b7160e01b600052603260045260246000fd5b602002602001015181600801819055506005848360ff1681518110612d5d57634e487b7160e01b600052603260045260246000fd5b60200260200101516003811115612d8457634e487b7160e01b600052602160045260246000fd5b60ff1660048110612da557634e487b7160e01b600052603260045260246000fd5b018054906000612db48361432d565b9190505550508080612dc590614348565b915050612a79565b505050505050505050565b60ff82166000908152600b602090815260408083206001600160a01b038516845260058101909252822054600682015483928392909115801590612e605750856001600160a01b0316826006018281548110612e4457634e487b7160e01b600052603260045260246000fd5b60009182526020909120600490910201546001600160a01b0316145b15612f1157816006018181548110612e8857634e487b7160e01b600052603260045260246000fd5b906000526020600020906004020160010154826006018281548110612ebd57634e487b7160e01b600052603260045260246000fd5b906000526020600020906004020160020154836006018381548110612ef257634e487b7160e01b600052603260045260246000fd5b9060005260206000209060040201600301549450945094505050612f1f565b600080600094509450945050505b9250925092565b60006110eb8284614297565b60006110eb82846142ff565b60006110eb82846142b7565b60006110eb828461425a565b3360009081526001602052604081205460ff166003811115612f8857634e487b7160e01b600052602160045260246000fd5b60ff8084166000908152600b6020526040902060070154166003811115612fbf57634e487b7160e01b600052602160045260246000fd5b148015610b8157505060ff9081166000908152600b60205260409020600701546101009004161590565b60ff81166000908152600b60205260409020601d54600a820154429161300f9190612f4a565b1015610dbd57600080600061302385610b87565b92509250925082156132b457600784015460038501546009860154600b8701546040517f6c2519b1f17e91e287d6d8df3b8d86c508c5be17b77eac27e707671979f8348594613080948b9460ff9283169491939216918990614087565b60405180910390a18115613105576003840181905560078401805461ff0019169055601f546130b0904290612f4a565b6008850155600284015460048501546130ce9160ff16908390613615565b600486015560028501805460ff90921660ff1992831617905560098501805490911690556000600a8501819055600b8501556132b4565b600384810182905560078501805461ff001916905560028501805460ff19169055600985015460059160ff9091169081111561315157634e487b7160e01b600052602160045260246000fd5b60ff166004811061317257634e487b7160e01b600052603260045260246000fd5b0180549060006131818361432d565b9091555050600784015460059060ff1660038111156131b057634e487b7160e01b600052602160045260246000fd5b60ff16600481106131d157634e487b7160e01b600052603260045260246000fd5b0180549060006131e083614316565b9091555050600784015460059060ff16600381111561320f57634e487b7160e01b600052602160045260246000fd5b60ff166004811061323057634e487b7160e01b600052603260045260246000fd5b01546132475760078401546132479060ff166136dc565b600984015460078501805460ff9092169160ff1916600183600381111561327e57634e487b7160e01b600052602160045260246000fd5b021790555060098401805460ff191690556000600a8501819055600b8501819055600485018190556132b4906006860190613945565b5050505050565b60ff82166000908152600b6020526040902060068101541580159061332e5750336000818152600583016020526040902054600683018054909190811061331257634e487b7160e01b600052603260045260246000fd5b60009182526020909120600490910201546001600160a01b0316145b80156133805750336000908152600582016020526040812054600683018054909190811061336c57634e487b7160e01b600052603260045260246000fd5b906000526020600020906004020160010154115b15613444576000613391848461098f565b336000908152600584016020526040902054600684018054929350839290919081106133cd57634e487b7160e01b600052603260045260246000fd5b9060005260206000209060040201600201819055504282600601836005016000336001600160a01b03166001600160a01b03168152602001908152602001600020548154811061342d57634e487b7160e01b600052603260045260246000fd5b906000526020600020906004020160030181905550505b505050565b600080546001600160a01b0383811673ffffffffffffffffffffffffffffffffffffffff19831681178455604051919092169283917f8be0079c531659141344cd1fd0a4f28419497f9722a3daafe3b4186f6b6457e09190a35050565b6004600360149054906101000a900460ff1660038111156134d757634e487b7160e01b600052602160045260246000fd5b60ff16600481106134f857634e487b7160e01b600052603260045260246000fd5b602081049091015460ff601f9092166101000a900416613605576040518060400160405280600360149054906101000a900460ff16600381111561354c57634e487b7160e01b600052602160045260246000fd5b8152600160209182018190523360009081529181905260409091208251815491929091839160ff199091169083600381111561359857634e487b7160e01b600052602160045260246000fd5b02179055506020919091015181549015156101000261ff00199091161790556003546040517f619772ff1bfa388a99d09f0cf36c4a8f3123c35b758bb60f4338d1e01efdae76916135f5913391600160a01b900460ff1690613f90565b60405180910390a161158f61377a565b61360d61377a565b61158f6134a6565b6000808083815b8760ff168160ff16101561367357600c8160ff166005811061364e57634e487b7160e01b600052603260045260246000fd5b6003020160010154871115613661578092505b8061366b81614348565b91505061361c565b5084600c8360ff166005811061369957634e487b7160e01b600052603260045260246000fd5b600302015410156136d057600c8260ff16600581106136c857634e487b7160e01b600052603260045260246000fd5b600302015490505b90969095509350505050565b6001600482600381111561370057634e487b7160e01b600052602160045260246000fd5b60ff166004811061372157634e487b7160e01b600052603260045260246000fd5b602091828204019190066101000a81548160ff0219169083151502179055507f9c1bdf97271633e60e67a3f6161b71615792ad8ba6d454e65ae3f4623bc7816b8160405161376f919061403d565b60405180910390a150565b60038054600160a01b900460ff16908111156137a657634e487b7160e01b600052602160045260246000fd5b60ff16600314156137ce57600380546000919060ff60a01b1916600160a01b835b0217905550565b60038054600160a01b900460ff16908111156137fa57634e487b7160e01b600052602160045260246000fd5b613805906001614272565b60ff16600381111561382757634e487b7160e01b600052602160045260246000fd5b6003805460ff60a01b1916600160a01b83838111156137c757634e487b7160e01b600052602160045260246000fd5b6040518060a001604052806005905b61388960405180606001604052806000815260200160008152602001600081525090565b8152602001906001900390816138655790505090565b82805482825590600052602060002090601f016020900481019282156139355791602002820160005b8382111561390657835183826101000a81548160ff021916908360ff16021790555092602001926001016020816000010492830192600103026138c8565b80156139335782816101000a81549060ff0219169055600101602081600001049283019260010302613906565b505b50613941929150613966565b5090565b5080546000825560040290600052602060002090810190611a8b919061397b565b5b808211156139415760008155600101613967565b5b8082111561394157805473ffffffffffffffffffffffffffffffffffffffff1916815560006001820181905560028201819055600382015560040161397c565b80356001600160a01b03811681146139d357600080fd5b919050565b600082601f8301126139e8578081fd5b813560206139fd6139f883614236565b614205565b80838252828201915082860187848660051b8901011115613a1c578586fd5b855b85811015613a5d57813567ffffffffffffffff811115613a3c578788fd5b613a4a8a87838c0101613b30565b8552509284019290840190600101613a1e565b5090979650505050505050565b600082601f830112613a7a578081fd5b81356020613a8a6139f883614236565b80838252828201915082860187848660051b8901011115613aa9578586fd5b855b85811015613a5d57813560048110613ac1578788fd5b84529284019290840190600101613aab565b600082601f830112613ae3578081fd5b81356020613af36139f883614236565b80838252828201915082860187848660051b8901011115613b12578586fd5b855b85811015613a5d57813584529284019290840190600101613b14565b600082601f830112613b40578081fd5b81356020613b506139f883614236565b80838252828201915082860187848660051b8901011115613b6f578586fd5b855b85811015613a5d57613b8282613b94565b84529284019290840190600101613b71565b803560ff811681146139d357600080fd5b600060208284031215613bb6578081fd5b6110eb826139bc565b60006101e0808385031215613bd2578182fd5b83601f840112613be0578182fd5b613be86141b9565b8084868487011115613bf8578485fd5b8493505b6005841015613c4a576060808289031215613c15578586fd5b613c1d6141e2565b82358152602080840135818301526040808501359083015290855260019590950194939093019201613bfc565b5095945050505050565b600080600080600080600080610100898b031215613c70578384fd5b883567ffffffffffffffff80821115613c87578586fd5b613c938c838d01613b30565b995060208b0135915080821115613ca8578586fd5b613cb48c838d01613b30565b985060408b0135915080821115613cc9578586fd5b613cd58c838d01613b30565b975060608b0135915080821115613cea578586fd5b613cf68c838d016139d8565b965060808b0135915080821115613d0b578586fd5b613d178c838d01613b30565b955060a08b0135915080821115613d2c578485fd5b613d388c838d01613ad3565b945060c08b0135915080821115613d4d578384fd5b613d598c838d01613a6a565b935060e08b0135915080821115613d6e578283fd5b50613d7b8b828c01613ad3565b9150509295985092959890939650565b600060208284031215613d9c578081fd5b5035919050565b600060208284031215613db4578081fd5b5051919050565b600080600080600080600060e0888a031215613dd5578081fd5b505085359760208701359750604087013596606081013596506080810135955060a0810135945060c0013592509050565b600060208284031215613e17578081fd5b6110eb82613b94565b60008060408385031215613e32578182fd5b613e3b83613b94565b9150613e49602084016139bc565b90509250929050565b60008060408385031215613e64578182fd5b613e6d83613b94565b946020939093013593505050565b600080600060608486031215613e8f578081fd5b613e9884613b94565b925060208401359150613ead604085016139bc565b90509250925092565b60008060408385031215613ec8578182fd5b613ed183613b94565b9150613e4960208401613b94565b60008060008060808587031215613ef4578182fd5b613efd85613b94565b9350613f0b60208601613b94565b92506040850135915060608501358015158114613f26578182fd5b939692955090935050565b6000815180845260208085019450808401835b83811015613f6357815160ff1687529582019590820190600101613f44565b509495945050505050565b60048110613f8c57634e487b7160e01b600052602160045260246000fd5b9052565b6001600160a01b0383168152604081016110eb6020830184613f6e565b6001600160a01b038516815260808101613fca6020830186613f6e565b60ff9390931660408201526060015292915050565b6101e08101818360005b600581101561402157815180518452602080820151818601526040918201519185019190915260609093019290910190600101613fe9565b50505092915050565b6020815260006110eb6020830184613f31565b60208101610b818284613f6e565b604081016140598285613f6e565b82151560208301529392505050565b606081016140768286613f6e565b602082019390935260400152919050565b60ff8716815260c0810161409e6020830188613f6e565b8560408301526140b16060830186613f6e565b83608083015282151560a0830152979650505050505050565b600061014060ff8d16835260ff8c16602084015260ff8b1660408401528060608401526140f98184018b613f31565b91505060ff881660808301528660a08301528560c083015261411e60e0830186613f6e565b921515610100820152610120015298975050505050505050565b60ff8b811682528a811660208301528981166040830152881660608201526080810187905260a08101869052610180810161417660c0830187613f6e565b84151560e08301528361010083015261419461012083018451613f6e565b602083015161014083015260408301516101608301529b9a5050505050505050505050565b60405160a0810167ffffffffffffffff811182821017156141dc576141dc61437e565b60405290565b6040516060810167ffffffffffffffff811182821017156141dc576141dc61437e565b604051601f8201601f1916810167ffffffffffffffff8111828210171561422e5761422e61437e565b604052919050565b600067ffffffffffffffff8211156142505761425061437e565b5060051b60200190565b6000821982111561426d5761426d614368565b500190565b600060ff821660ff84168060ff0382111561428f5761428f614368565b019392505050565b6000826142b257634e487b7160e01b81526012600452602481fd5b500490565b60008160001904831182151516156142d1576142d1614368565b500290565b600060ff821660ff84168160ff04811182151516156142f7576142f7614368565b029392505050565b60008282101561431157614311614368565b500390565b60008161432557614325614368565b506000190190565b600060001982141561434157614341614368565b5060010190565b600060ff821660ff81141561435f5761435f614368565b60010192915050565b634e487b7160e01b600052601160045260246000fd5b634e487b7160e01b600052604160045260246000fdfea264697066735822122029fc993af1b24e5326007cde0ab35db94bedfadaf3ce184c13f1ebb647e9558c64736f6c63430008040033",
  "linkReferences": {},
  "deployedLinkReferences": {}
}